{
  "contractName": "Auction",
  "abi": [
    {
      "inputs": [
        {
          "internalType": "contract NFT",
          "name": "_nftContract",
          "type": "address"
        }
      ],
      "stateMutability": "nonpayable",
      "type": "constructor"
    },
    {
      "anonymous": false,
      "inputs": [
        {
          "indexed": false,
          "internalType": "uint256",
          "name": "tokenId",
          "type": "uint256"
        },
        {
          "indexed": false,
          "internalType": "uint256",
          "name": "startingPrice",
          "type": "uint256"
        },
        {
          "indexed": false,
          "internalType": "uint256",
          "name": "startTime",
          "type": "uint256"
        },
        {
          "indexed": false,
          "internalType": "uint256",
          "name": "endTime",
          "type": "uint256"
        }
      ],
      "name": "AuctionCreated",
      "type": "event"
    },
    {
      "anonymous": false,
      "inputs": [
        {
          "indexed": false,
          "internalType": "uint256",
          "name": "tokenId",
          "type": "uint256"
        },
        {
          "indexed": false,
          "internalType": "address",
          "name": "winner",
          "type": "address"
        },
        {
          "indexed": false,
          "internalType": "uint256",
          "name": "amount",
          "type": "uint256"
        }
      ],
      "name": "AuctionEnded",
      "type": "event"
    },
    {
      "anonymous": false,
      "inputs": [
        {
          "indexed": false,
          "internalType": "uint256",
          "name": "tokenId",
          "type": "uint256"
        },
        {
          "indexed": false,
          "internalType": "address",
          "name": "bidder",
          "type": "address"
        },
        {
          "indexed": false,
          "internalType": "uint256",
          "name": "amount",
          "type": "uint256"
        }
      ],
      "name": "NewBid",
      "type": "event"
    },
    {
      "anonymous": false,
      "inputs": [
        {
          "indexed": false,
          "internalType": "uint256",
          "name": "tokenId",
          "type": "uint256"
        }
      ],
      "name": "deleteAuction",
      "type": "event"
    },
    {
      "inputs": [
        {
          "internalType": "uint256",
          "name": "",
          "type": "uint256"
        }
      ],
      "name": "auctions",
      "outputs": [
        {
          "internalType": "uint256",
          "name": "tokenId",
          "type": "uint256"
        },
        {
          "internalType": "address payable",
          "name": "seller",
          "type": "address"
        },
        {
          "internalType": "uint256",
          "name": "startingPrice",
          "type": "uint256"
        },
        {
          "internalType": "uint256",
          "name": "highestBid",
          "type": "uint256"
        },
        {
          "internalType": "address payable",
          "name": "highestBidder",
          "type": "address"
        },
        {
          "internalType": "uint256",
          "name": "startTime",
          "type": "uint256"
        },
        {
          "internalType": "uint256",
          "name": "endTime",
          "type": "uint256"
        }
      ],
      "stateMutability": "view",
      "type": "function",
      "constant": true
    },
    {
      "inputs": [
        {
          "internalType": "uint256",
          "name": "",
          "type": "uint256"
        },
        {
          "internalType": "uint256",
          "name": "",
          "type": "uint256"
        }
      ],
      "name": "bidHistory",
      "outputs": [
        {
          "internalType": "address",
          "name": "bidder",
          "type": "address"
        },
        {
          "internalType": "uint256",
          "name": "amount",
          "type": "uint256"
        },
        {
          "internalType": "uint256",
          "name": "timestamp",
          "type": "uint256"
        }
      ],
      "stateMutability": "view",
      "type": "function",
      "constant": true
    },
    {
      "inputs": [
        {
          "internalType": "uint256",
          "name": "_tokenId",
          "type": "uint256"
        },
        {
          "internalType": "uint256",
          "name": "_startingPrice",
          "type": "uint256"
        },
        {
          "internalType": "uint256",
          "name": "_startTime",
          "type": "uint256"
        },
        {
          "internalType": "uint256",
          "name": "_endTime",
          "type": "uint256"
        }
      ],
      "name": "createAuction",
      "outputs": [],
      "stateMutability": "nonpayable",
      "type": "function"
    },
    {
      "inputs": [
        {
          "internalType": "uint256",
          "name": "_tokenId",
          "type": "uint256"
        }
      ],
      "name": "cancelAuction",
      "outputs": [],
      "stateMutability": "nonpayable",
      "type": "function"
    },
    {
      "inputs": [],
      "name": "getTime",
      "outputs": [
        {
          "internalType": "uint256",
          "name": "",
          "type": "uint256"
        }
      ],
      "stateMutability": "view",
      "type": "function",
      "constant": true
    },
    {
      "inputs": [
        {
          "internalType": "uint256",
          "name": "_tokenId",
          "type": "uint256"
        }
      ],
      "name": "placeBid",
      "outputs": [],
      "stateMutability": "payable",
      "type": "function",
      "payable": true
    },
    {
      "inputs": [
        {
          "internalType": "uint256",
          "name": "_tokenId",
          "type": "uint256"
        }
      ],
      "name": "endAuction",
      "outputs": [],
      "stateMutability": "nonpayable",
      "type": "function"
    },
    {
      "inputs": [
        {
          "internalType": "uint256",
          "name": "_tokenId",
          "type": "uint256"
        }
      ],
      "name": "getBidHistory",
      "outputs": [
        {
          "components": [
            {
              "internalType": "address",
              "name": "bidder",
              "type": "address"
            },
            {
              "internalType": "uint256",
              "name": "amount",
              "type": "uint256"
            },
            {
              "internalType": "uint256",
              "name": "timestamp",
              "type": "uint256"
            }
          ],
          "internalType": "struct Auction.Bid[]",
          "name": "",
          "type": "tuple[]"
        }
      ],
      "stateMutability": "view",
      "type": "function",
      "constant": true
    },
    {
      "inputs": [
        {
          "internalType": "uint256",
          "name": "tokenId",
          "type": "uint256"
        }
      ],
      "name": "getDetails",
      "outputs": [
        {
          "components": [
            {
              "internalType": "uint256",
              "name": "tokenId",
              "type": "uint256"
            },
            {
              "internalType": "address payable",
              "name": "seller",
              "type": "address"
            },
            {
              "internalType": "uint256",
              "name": "startingPrice",
              "type": "uint256"
            },
            {
              "internalType": "uint256",
              "name": "highestBid",
              "type": "uint256"
            },
            {
              "internalType": "address payable",
              "name": "highestBidder",
              "type": "address"
            },
            {
              "internalType": "uint256",
              "name": "startTime",
              "type": "uint256"
            },
            {
              "internalType": "uint256",
              "name": "endTime",
              "type": "uint256"
            }
          ],
          "internalType": "struct Auction.AuctionItem",
          "name": "",
          "type": "tuple"
        }
      ],
      "stateMutability": "view",
      "type": "function",
      "constant": true
    }
  ],
  "bytecode": "0x60806040523480156200001157600080fd5b5060405162002329380380620023298339818101604052810190620000379190620000fd565b80600160006101000a81548173ffffffffffffffffffffffffffffffffffffffff021916908373ffffffffffffffffffffffffffffffffffffffff160217905550506200012f565b600080fd5b600073ffffffffffffffffffffffffffffffffffffffff82169050919050565b6000620000b18262000084565b9050919050565b6000620000c582620000a4565b9050919050565b620000d781620000b8565b8114620000e357600080fd5b50565b600081519050620000f781620000cc565b92915050565b6000602082840312156200011657620001156200007f565b5b60006200012684828501620000e6565b91505092915050565b6121ea806200013f6000396000f3fe6080604052600436106100865760003560e01c806396b5a7551161005957806396b5a755146101615780639979ef451461018a578063b93a89f7146101a6578063b9a2de3a146101e3578063c0738dce1461020c57610086565b8063431f21da1461008b578063557ed1ba146100b4578063571a26a0146100df57806361ab546e14610122575b600080fd5b34801561009757600080fd5b506100b260048036038101906100ad9190611668565b610249565b005b3480156100c057600080fd5b506100c96106f6565b6040516100d691906116de565b60405180910390f35b3480156100eb57600080fd5b50610106600480360381019061010191906116f9565b6106fe565b6040516101199796959493929190611767565b60405180910390f35b34801561012e57600080fd5b50610149600480360381019061014491906117d6565b610780565b60405161015893929190611837565b60405180910390f35b34801561016d57600080fd5b50610188600480360381019061018391906116f9565b6107e7565b005b6101a4600480360381019061019f91906116f9565b610a75565b005b3480156101b257600080fd5b506101cd60048036038101906101c891906116f9565b610dc3565b6040516101da919061191a565b60405180910390f35b3480156101ef57600080fd5b5061020a600480360381019061020591906116f9565b610ece565b005b34801561021857600080fd5b50610233600480360381019061022e91906116f9565b61140c565b6040516102409190611a35565b60405180910390f35b3373ffffffffffffffffffffffffffffffffffffffff16600160009054906101000a900473ffffffffffffffffffffffffffffffffffffffff1673ffffffffffffffffffffffffffffffffffffffff16636352211e866040518263ffffffff1660e01b81526004016102bb91906116de565b602060405180830381865afa1580156102d8573d6000803e3d6000fd5b505050506040513d601f19601f820116820180604052508101906102fc9190611a83565b73ffffffffffffffffffffffffffffffffffffffff1614610352576040517f08c379a000000000000000000000000000000000000000000000000000000000815260040161034990611b0d565b60405180910390fd5b3073ffffffffffffffffffffffffffffffffffffffff16600160009054906101000a900473ffffffffffffffffffffffffffffffffffffffff1673ffffffffffffffffffffffffffffffffffffffff1663081812fc866040518263ffffffff1660e01b81526004016103c491906116de565b602060405180830381865afa1580156103e1573d6000803e3d6000fd5b505050506040513d601f19601f820116820180604052508101906104059190611a83565b73ffffffffffffffffffffffffffffffffffffffff161461045b576040517f08c379a000000000000000000000000000000000000000000000000000000000815260040161045290611b79565b60405180910390fd5b6040518060e001604052808581526020013373ffffffffffffffffffffffffffffffffffffffff16815260200184815260200160008152602001600073ffffffffffffffffffffffffffffffffffffffff16815260200183815260200182815250600260008681526020019081526020016000206000820151816000015560208201518160010160006101000a81548173ffffffffffffffffffffffffffffffffffffffff021916908373ffffffffffffffffffffffffffffffffffffffff160217905550604082015181600201556060820151816003015560808201518160040160006101000a81548173ffffffffffffffffffffffffffffffffffffffff021916908373ffffffffffffffffffffffffffffffffffffffff16021790555060a0820151816005015560c08201518160060155905050600160009054906101000a900473ffffffffffffffffffffffffffffffffffffffff1673ffffffffffffffffffffffffffffffffffffffff166323b872dd3330876040518463ffffffff1660e01b81526004016105f193929190611b99565b600060405180830381600087803b15801561060b57600080fd5b505af115801561061f573d6000803e3d6000fd5b50505050600160009054906101000a900473ffffffffffffffffffffffffffffffffffffffff1673ffffffffffffffffffffffffffffffffffffffff16639ce058e28560026040518363ffffffff1660e01b8152600401610681929190611c47565b600060405180830381600087803b15801561069b57600080fd5b505af11580156106af573d6000803e3d6000fd5b505050507fa9c8dfcda5664a5a124c713e386da27de87432d5b668e79458501eb296389ba7848484846040516106e89493929190611c70565b60405180910390a150505050565b600042905090565b60026020528060005260406000206000915090508060000154908060010160009054906101000a900473ffffffffffffffffffffffffffffffffffffffff16908060020154908060030154908060040160009054906101000a900473ffffffffffffffffffffffffffffffffffffffff16908060050154908060060154905087565b6003602052816000526040600020818154811061079c57600080fd5b9060005260206000209060030201600091509150508060000160009054906101000a900473ffffffffffffffffffffffffffffffffffffffff16908060010154908060020154905083565b60006002600083815260200190815260200160002090503373ffffffffffffffffffffffffffffffffffffffff168160010160009054906101000a900473ffffffffffffffffffffffffffffffffffffffff1673ffffffffffffffffffffffffffffffffffffffff1614610890576040517f08c379a000000000000000000000000000000000000000000000000000000000815260040161088790611d27565b60405180910390fd5b600073ffffffffffffffffffffffffffffffffffffffff168160040160009054906101000a900473ffffffffffffffffffffffffffffffffffffffff1673ffffffffffffffffffffffffffffffffffffffff1614610923576040517f08c379a000000000000000000000000000000000000000000000000000000000815260040161091a90611d93565b60405180910390fd5b600160009054906101000a900473ffffffffffffffffffffffffffffffffffffffff1673ffffffffffffffffffffffffffffffffffffffff16639ce058e28360006040518363ffffffff1660e01b8152600401610981929190611c47565b600060405180830381600087803b15801561099b57600080fd5b505af11580156109af573d6000803e3d6000fd5b50505050600160009054906101000a900473ffffffffffffffffffffffffffffffffffffffff1673ffffffffffffffffffffffffffffffffffffffff166323b872dd308360010160009054906101000a900473ffffffffffffffffffffffffffffffffffffffff16856040518463ffffffff1660e01b8152600401610a3693929190611e12565b600060405180830381600087803b158015610a5057600080fd5b505af1158015610a64573d6000803e3d6000fd5b50505050610a71826114e8565b5050565b60006002600083815260200190815260200160002090508060050154421015610ad3576040517f08c379a0000000000000000000000000000000000000000000000000000000008152600401610aca90611e95565b60405180910390fd5b8060060154421115610b1a576040517f08c379a0000000000000000000000000000000000000000000000000000000008152600401610b1190611f01565b60405180910390fd5b80600201543411610b60576040517f08c379a0000000000000000000000000000000000000000000000000000000008152600401610b5790611f93565b60405180910390fd5b80600301543411610ba6576040517f08c379a0000000000000000000000000000000000000000000000000000000008152600401610b9d90612025565b60405180910390fd5b600073ffffffffffffffffffffffffffffffffffffffff168160040160009054906101000a900473ffffffffffffffffffffffffffffffffffffffff1673ffffffffffffffffffffffffffffffffffffffff1614610c6e578060040160009054906101000a900473ffffffffffffffffffffffffffffffffffffffff1673ffffffffffffffffffffffffffffffffffffffff166108fc82600301549081150290604051600060405180830381858888f19350505050158015610c6c573d6000803e3d6000fd5b505b6003600083815260200190815260200160002060405180606001604052803373ffffffffffffffffffffffffffffffffffffffff16815260200134815260200142815250908060018154018082558091505060019003906000526020600020906003020160009091909190915060008201518160000160006101000a81548173ffffffffffffffffffffffffffffffffffffffff021916908373ffffffffffffffffffffffffffffffffffffffff16021790555060208201518160010155604082015181600201555050348160030181905550338160040160006101000a81548173ffffffffffffffffffffffffffffffffffffffff021916908373ffffffffffffffffffffffffffffffffffffffff1602179055507f558a0d5d5468d74b0db24c74eb348b42271c2ebb4c9e953ced38aaed95fa4361823334604051610db793929190612045565b60405180910390a15050565b610dcb6115c4565b600260008381526020019081526020016000206040518060e0016040529081600082015481526020016001820160009054906101000a900473ffffffffffffffffffffffffffffffffffffffff1673ffffffffffffffffffffffffffffffffffffffff1673ffffffffffffffffffffffffffffffffffffffff16815260200160028201548152602001600382015481526020016004820160009054906101000a900473ffffffffffffffffffffffffffffffffffffffff1673ffffffffffffffffffffffffffffffffffffffff1673ffffffffffffffffffffffffffffffffffffffff168152602001600582015481526020016006820154815250509050919050565b60006002600083815260200190815260200160002090508060060154421015610f2c576040517f08c379a0000000000000000000000000000000000000000000000000000000008152600401610f23906120c8565b60405180910390fd5b3373ffffffffffffffffffffffffffffffffffffffff168160010160009054906101000a900473ffffffffffffffffffffffffffffffffffffffff1673ffffffffffffffffffffffffffffffffffffffff161480610fd957503373ffffffffffffffffffffffffffffffffffffffff168160040160009054906101000a900473ffffffffffffffffffffffffffffffffffffffff1673ffffffffffffffffffffffffffffffffffffffff16145b611018576040517f08c379a000000000000000000000000000000000000000000000000000000000815260040161100f90612134565b60405180910390fd5b600160009054906101000a900473ffffffffffffffffffffffffffffffffffffffff1673ffffffffffffffffffffffffffffffffffffffff16639ce058e28360006040518363ffffffff1660e01b8152600401611076929190611c47565b600060405180830381600087803b15801561109057600080fd5b505af11580156110a4573d6000803e3d6000fd5b50505050600073ffffffffffffffffffffffffffffffffffffffff168160040160009054906101000a900473ffffffffffffffffffffffffffffffffffffffff1673ffffffffffffffffffffffffffffffffffffffff16036111ba57600160009054906101000a900473ffffffffffffffffffffffffffffffffffffffff1673ffffffffffffffffffffffffffffffffffffffff166323b872dd308360010160009054906101000a900473ffffffffffffffffffffffffffffffffffffffff16856040518463ffffffff1660e01b815260040161118393929190611e12565b600060405180830381600087803b15801561119d57600080fd5b505af11580156111b1573d6000803e3d6000fd5b5050505061139c565b8060010160009054906101000a900473ffffffffffffffffffffffffffffffffffffffff1673ffffffffffffffffffffffffffffffffffffffff166108fc82600301549081150290604051600060405180830381858888f19350505050158015611228573d6000803e3d6000fd5b50600160009054906101000a900473ffffffffffffffffffffffffffffffffffffffff1673ffffffffffffffffffffffffffffffffffffffff166352d69dff838360040160009054906101000a900473ffffffffffffffffffffffffffffffffffffffff166040518363ffffffff1660e01b81526004016112aa929190612154565b600060405180830381600087803b1580156112c457600080fd5b505af11580156112d8573d6000803e3d6000fd5b50505050600160009054906101000a900473ffffffffffffffffffffffffffffffffffffffff1673ffffffffffffffffffffffffffffffffffffffff166323b872dd308360040160009054906101000a900473ffffffffffffffffffffffffffffffffffffffff16856040518463ffffffff1660e01b815260040161135f93929190611e12565b600060405180830381600087803b15801561137957600080fd5b505af115801561138d573d6000803e3d6000fd5b5050505061139b60006115ae565b5b6113a5826114e8565b7fd2aa34a4fdbbc6dff6a3e56f46e0f3ae2a31d7785ff3487aa5c95c642acea501828260040160009054906101000a900473ffffffffffffffffffffffffffffffffffffffff1683600301546040516114009392919061217d565b60405180910390a15050565b606060036000838152602001908152602001600020805480602002602001604051908101604052809291908181526020016000905b828210156114dd57838290600052602060002090600302016040518060600160405290816000820160009054906101000a900473ffffffffffffffffffffffffffffffffffffffff1673ffffffffffffffffffffffffffffffffffffffff1673ffffffffffffffffffffffffffffffffffffffff1681526020016001820154815260200160028201548152505081526020019060010190611441565b505050509050919050565b600260008281526020019081526020016000206000808201600090556001820160006101000a81549073ffffffffffffffffffffffffffffffffffffffff0219169055600282016000905560038201600090556004820160006101000a81549073ffffffffffffffffffffffffffffffffffffffff02191690556005820160009055600682016000905550507f7a32f2912f71506870c0c9eb0e870e4c14899fa413d764125daae3552afd0657816040516115a391906116de565b60405180910390a150565b6001816000016000828254019250508190555050565b6040518060e0016040528060008152602001600073ffffffffffffffffffffffffffffffffffffffff1681526020016000815260200160008152602001600073ffffffffffffffffffffffffffffffffffffffff16815260200160008152602001600081525090565b600080fd5b6000819050919050565b61164581611632565b811461165057600080fd5b50565b6000813590506116628161163c565b92915050565b600080600080608085870312156116825761168161162d565b5b600061169087828801611653565b94505060206116a187828801611653565b93505060406116b287828801611653565b92505060606116c387828801611653565b91505092959194509250565b6116d881611632565b82525050565b60006020820190506116f360008301846116cf565b92915050565b60006020828403121561170f5761170e61162d565b5b600061171d84828501611653565b91505092915050565b600073ffffffffffffffffffffffffffffffffffffffff82169050919050565b600061175182611726565b9050919050565b61176181611746565b82525050565b600060e08201905061177c600083018a6116cf565b6117896020830189611758565b61179660408301886116cf565b6117a360608301876116cf565b6117b06080830186611758565b6117bd60a08301856116cf565b6117ca60c08301846116cf565b98975050505050505050565b600080604083850312156117ed576117ec61162d565b5b60006117fb85828601611653565b925050602061180c85828601611653565b9150509250929050565b600061182182611726565b9050919050565b61183181611816565b82525050565b600060608201905061184c6000830186611828565b61185960208301856116cf565b61186660408301846116cf565b949350505050565b61187781611632565b82525050565b61188681611746565b82525050565b60e0820160008201516118a2600085018261186e565b5060208201516118b5602085018261187d565b5060408201516118c8604085018261186e565b5060608201516118db606085018261186e565b5060808201516118ee608085018261187d565b5060a082015161190160a085018261186e565b5060c082015161191460c085018261186e565b50505050565b600060e08201905061192f600083018461188c565b92915050565b600081519050919050565b600082825260208201905092915050565b6000819050602082019050919050565b61196a81611816565b82525050565b6060820160008201516119866000850182611961565b506020820151611999602085018261186e565b5060408201516119ac604085018261186e565b50505050565b60006119be8383611970565b60608301905092915050565b6000602082019050919050565b60006119e282611935565b6119ec8185611940565b93506119f783611951565b8060005b83811015611a28578151611a0f88826119b2565b9750611a1a836119ca565b9250506001810190506119fb565b5085935050505092915050565b60006020820190508181036000830152611a4f81846119d7565b905092915050565b611a6081611816565b8114611a6b57600080fd5b50565b600081519050611a7d81611a57565b92915050565b600060208284031215611a9957611a9861162d565b5b6000611aa784828501611a6e565b91505092915050565b600082825260208201905092915050565b7f4e6f7420746865206f776e6572206f6620746865204e46540000000000000000600082015250565b6000611af7601883611ab0565b9150611b0282611ac1565b602082019050919050565b60006020820190508181036000830152611b2681611aea565b9050919050565b7f41756374696f6e20636f6e7472616374206e6f7420617070726f766564000000600082015250565b6000611b63601d83611ab0565b9150611b6e82611b2d565b602082019050919050565b60006020820190508181036000830152611b9281611b56565b9050919050565b6000606082019050611bae6000830186611828565b611bbb6020830185611828565b611bc860408301846116cf565b949350505050565b7f4e487b7100000000000000000000000000000000000000000000000000000000600052602160045260246000fd5b60038110611c1057611c0f611bd0565b5b50565b6000819050611c2182611bff565b919050565b6000611c3182611c13565b9050919050565b611c4181611c26565b82525050565b6000604082019050611c5c60008301856116cf565b611c696020830184611c38565b9392505050565b6000608082019050611c8560008301876116cf565b611c9260208301866116cf565b611c9f60408301856116cf565b611cac60608301846116cf565b95945050505050565b7f4f6e6c792073656c6c65722063616e2063616e63656c2074686520617563746960008201527f6f6e000000000000000000000000000000000000000000000000000000000000602082015250565b6000611d11602283611ab0565b9150611d1c82611cb5565b604082019050919050565b60006020820190508181036000830152611d4081611d04565b9050919050565b7f41756374696f6e20616c72656164792068617320626964730000000000000000600082015250565b6000611d7d601883611ab0565b9150611d8882611d47565b602082019050919050565b60006020820190508181036000830152611dac81611d70565b9050919050565b6000819050919050565b6000611dd8611dd3611dce84611726565b611db3565b611726565b9050919050565b6000611dea82611dbd565b9050919050565b6000611dfc82611ddf565b9050919050565b611e0c81611df1565b82525050565b6000606082019050611e276000830186611828565b611e346020830185611e03565b611e4160408301846116cf565b949350505050565b7f41756374696f6e20686173206e6f742073746172746564000000000000000000600082015250565b6000611e7f601783611ab0565b9150611e8a82611e49565b602082019050919050565b60006020820190508181036000830152611eae81611e72565b9050919050565b7f41756374696f6e2068617320656e646564000000000000000000000000000000600082015250565b6000611eeb601183611ab0565b9150611ef682611eb5565b602082019050919050565b60006020820190508181036000830152611f1a81611ede565b9050919050565b7f426964206d75737420626520686967686572207468616e207374617274696e6760008201527f2070726963650000000000000000000000000000000000000000000000000000602082015250565b6000611f7d602683611ab0565b9150611f8882611f21565b604082019050919050565b60006020820190508181036000830152611fac81611f70565b9050919050565b7f426964206d75737420626520686967686572207468616e2063757272656e742060008201527f6869676865737420626964000000000000000000000000000000000000000000602082015250565b600061200f602b83611ab0565b915061201a82611fb3565b604082019050919050565b6000602082019050818103600083015261203e81612002565b9050919050565b600060608201905061205a60008301866116cf565b6120676020830185611828565b61207460408301846116cf565b949350505050565b7f41756374696f6e206e6f742079657420656e6465640000000000000000000000600082015250565b60006120b2601583611ab0565b91506120bd8261207c565b602082019050919050565b600060208201905081810360008301526120e1816120a5565b9050919050565b7f4f6e6c792073656c6c65722063616e20656e64207468652061756374696f6e00600082015250565b600061211e601f83611ab0565b9150612129826120e8565b602082019050919050565b6000602082019050818103600083015261214d81612111565b9050919050565b600060408201905061216960008301856116cf565b6121766020830184611e03565b9392505050565b600060608201905061219260008301866116cf565b61219f6020830185611e03565b6121ac60408301846116cf565b94935050505056fea26469706673582212206362b4b943257c20ae311142431c9b41125ccff070e3b682914669187173ca5764736f6c634300080d0033",
  "immutableReferences": {},
  "source": "// SPDX-License-Identifier: MIT\npragma solidity ^0.8.0;\n\nimport \"./NFT.sol\";\n\n\n\ncontract Auction {\n\n\n     using Counters for Counters.Counter;\n\n    Counters.Counter private _itemsSold;\n\n    struct AuctionItem {\n        uint256 tokenId;\n        address payable seller;\n        uint256 startingPrice;\n        uint256 highestBid;\n        address payable highestBidder;\n        uint256 startTime;\n        uint256 endTime;\n    }\n\n    struct Bid { \n        address bidder; uint256 amount; uint256 timestamp; \n     }\n\n    NFT private nftContract; // Tham chiu n contract NFT\n    mapping(uint256 => AuctionItem) public auctions;\n    mapping(uint256 => Bid[]) public bidHistory;\n    event AuctionCreated(uint256 tokenId, uint256 startingPrice, uint256 startTime,uint256 endTime);\n    event NewBid(uint256 tokenId, address bidder, uint256 amount);\n    event AuctionEnded(uint256 tokenId, address winner, uint256 amount);\n    event deleteAuction(uint256 tokenId);\n\n\n    constructor(NFT _nftContract) {\n        nftContract = _nftContract;  // Khi to contract NFT thng qua interface\n    }\n\nfunction createAuction(uint256 _tokenId, uint256 _startingPrice,uint256 _startTime ,uint256 _endTime) public {\n    require(nftContract.ownerOf(_tokenId) == msg.sender, \"Not the owner of the NFT\");\n    // Kim tra xem contract Auction  c approve cho tokenId cha\n    require(nftContract.getApproved(_tokenId) == address(this), \"Auction contract not approved\");\n\n    auctions[_tokenId] = AuctionItem({\n        tokenId: _tokenId,\n        seller: payable(msg.sender),\n        startingPrice: _startingPrice,\n        highestBid: 0,\n        highestBidder: payable(address(0)),\n        startTime: _startTime,\n        endTime: _endTime\n    });\n\n     \n\n    nftContract.transferFrom(msg.sender, address(this), _tokenId);\n    nftContract.updateStatusMyNFT(_tokenId, NFT.NFTStatus.Auction);\n\n    emit AuctionCreated(_tokenId, _startingPrice, _startTime, _endTime);\n}\n\nfunction cancelAuction(uint256 _tokenId) public {\n        AuctionItem storage auction = auctions[_tokenId];\n        require(auction.seller == msg.sender, \"Only seller can cancel the auction\");\n        require(auction.highestBidder == address(0), \"Auction already has bids\");\n        nftContract.updateStatusMyNFT(_tokenId, NFT.NFTStatus.None);\n        // Tr li NFT cho seller\n        nftContract.transferFrom(address(this), auction.seller, _tokenId);\n       deleteTokenSell(_tokenId);\n    }\n\nfunction getTime() public view returns (uint256) {\n        return block.timestamp;\n    }\n\n\nfunction placeBid(uint256 _tokenId) public payable {\n    AuctionItem storage auction = auctions[_tokenId];\n    \n    require(block.timestamp >= auction.startTime, \"Auction has not started\");\n    require(block.timestamp <= auction.endTime, \"Auction has ended\");\n\n    // Kim tra gi thu\n    require(msg.value > auction.startingPrice, \"Bid must be higher than starting price\");\n    require(msg.value > auction.highestBid, \"Bid must be higher than current highest bid\");\n\n    // Hon li tin cho bidder trc  nu c\n    if (auction.highestBidder != address(0)) {\n        auction.highestBidder.transfer(auction.highestBid);\n    }\n\n        // Lu thng tin ca ngi u gi vo lch s\n    // Lu thng tin ca ngi u gi vo lch s\n        bidHistory[_tokenId].push(Bid({\n            bidder:payable(msg.sender),\n            amount: msg.value,\n            timestamp: block.timestamp\n        }));\n\n    auction.highestBid = msg.value;\n    auction.highestBidder = payable(msg.sender);\n\n    emit NewBid(_tokenId, msg.sender, msg.value);\n}\n\n\nfunction endAuction(uint256 _tokenId) public {\n    AuctionItem storage auction = auctions[_tokenId];\n    require(block.timestamp >= auction.endTime, \"Auction not yet ended\");\n    require(auction.seller == msg.sender||auction.highestBidder== msg.sender, \"Only seller can end the auction\");\n        nftContract.updateStatusMyNFT(_tokenId, NFT.NFTStatus.None);\n    if (auction.highestBidder == address(0)) {\n        // Khng c ai u gi, tr li NFT cho ngi bn\n        nftContract.transferFrom(address(this), auction.seller, _tokenId);\n    } else {\n        \n\n        // Chuyn tin cho ngi bn\n        auction.seller.transfer(auction.highestBid);\n\n        // update owner \n        nftContract.updateOwnerMyNFT(_tokenId,auction.highestBidder);\n        // Chuyn NFT cho ngi thng\n        nftContract.transferFrom(address(this), auction.highestBidder, _tokenId);\n        _itemsSold.increment();\n    }\n    \n    deleteTokenSell(_tokenId);\n    emit AuctionEnded(_tokenId, auction.highestBidder, auction.highestBid);\n    \n}\n\n    // Delete market item\nfunction deleteTokenSell(uint256 _tokenId) private {\n    // Remove the auction associated with the tokenId\n    delete auctions[_tokenId];\n    \n    // Emit the event for deletion\n    emit deleteAuction(_tokenId);\n}\n\n\n// Hm  ly lch s u gi cho mt token\n    function getBidHistory(uint256 _tokenId) public view returns (Bid[] memory) {\n        return bidHistory[_tokenId];\n    }\n    \n    \n    function getDetails(uint256 tokenId) public view returns (AuctionItem memory) {\n        return auctions[tokenId];\n    }\n\n\n}\n",
  "sourcePath": "/home/hiep-ubuntu/Desktop/remix/MetaCoin/contracts/Auction.sol",
  "compiler": {
    "name": "solc",
    "version": "0.8.13+commit.abaa5c0e.Emscripten.clang"
  },
  "schemaVersion": "3.4.16",
  "updatedAt": "2024-10-13T11:53:35.079Z",
  "networkType": "ethereum",
  "devdoc": {
    "kind": "dev",
    "methods": {},
    "version": 1
  },
  "userdoc": {
    "kind": "user",
    "methods": {},
    "version": 1
  }
}