{
  "contractName": "Marketplace",
  "abi": [
    {
      "inputs": [
        {
          "internalType": "contract NFT",
          "name": "_nftContract",
          "type": "address"
        }
      ],
      "stateMutability": "nonpayable",
      "type": "constructor"
    },
    {
      "anonymous": false,
      "inputs": [
        {
          "indexed": false,
          "internalType": "uint256",
          "name": "tokenId",
          "type": "uint256"
        },
        {
          "indexed": false,
          "internalType": "address",
          "name": "seller",
          "type": "address"
        },
        {
          "indexed": false,
          "internalType": "uint256",
          "name": "price",
          "type": "uint256"
        }
      ],
      "name": "MarketItemCreated",
      "type": "event"
    },
    {
      "anonymous": false,
      "inputs": [
        {
          "indexed": false,
          "internalType": "uint256",
          "name": "tokenId",
          "type": "uint256"
        }
      ],
      "name": "SellItemDeleted",
      "type": "event"
    },
    {
      "anonymous": false,
      "inputs": [
        {
          "indexed": false,
          "internalType": "uint256",
          "name": "tokenId",
          "type": "uint256"
        },
        {
          "indexed": false,
          "internalType": "address",
          "name": "buyer",
          "type": "address"
        },
        {
          "indexed": false,
          "internalType": "uint256",
          "name": "price",
          "type": "uint256"
        }
      ],
      "name": "TokenBought",
      "type": "event"
    },
    {
      "inputs": [
        {
          "internalType": "uint256",
          "name": "tokenId",
          "type": "uint256"
        },
        {
          "internalType": "uint256",
          "name": "price",
          "type": "uint256"
        }
      ],
      "name": "createSell",
      "outputs": [],
      "stateMutability": "nonpayable",
      "type": "function"
    },
    {
      "inputs": [
        {
          "internalType": "uint256",
          "name": "tokenId",
          "type": "uint256"
        }
      ],
      "name": "buyNFT",
      "outputs": [],
      "stateMutability": "payable",
      "type": "function",
      "payable": true
    },
    {
      "inputs": [
        {
          "internalType": "uint256",
          "name": "tokenId",
          "type": "uint256"
        }
      ],
      "name": "cancelSell",
      "outputs": [],
      "stateMutability": "nonpayable",
      "type": "function"
    },
    {
      "inputs": [
        {
          "internalType": "uint256",
          "name": "tokenId",
          "type": "uint256"
        }
      ],
      "name": "getMarketItemDetails",
      "outputs": [
        {
          "components": [
            {
              "internalType": "uint256",
              "name": "tokenId",
              "type": "uint256"
            },
            {
              "internalType": "address payable",
              "name": "seller",
              "type": "address"
            },
            {
              "internalType": "uint256",
              "name": "price",
              "type": "uint256"
            }
          ],
          "internalType": "struct Marketplace.MarketItem",
          "name": "",
          "type": "tuple"
        }
      ],
      "stateMutability": "view",
      "type": "function",
      "constant": true
    }
  ],
  "bytecode": "0x60806040523480156200001157600080fd5b50604051620011a1380380620011a18339818101604052810190620000379190620000fd565b80600260006101000a81548173ffffffffffffffffffffffffffffffffffffffff021916908373ffffffffffffffffffffffffffffffffffffffff160217905550506200012f565b600080fd5b600073ffffffffffffffffffffffffffffffffffffffff82169050919050565b6000620000b18262000084565b9050919050565b6000620000c582620000a4565b9050919050565b620000d781620000b8565b8114620000e357600080fd5b50565b600081519050620000f781620000cc565b92915050565b6000602082840312156200011657620001156200007f565b5b60006200012684828501620000e6565b91505092915050565b611062806200013f6000396000f3fe60806040526004361061003f5760003560e01c806307c9cd451461004457806351ed82881461006d57806388d9e84c14610089578063a4144ed2146100c6575b600080fd5b34801561005057600080fd5b5061006b60048036038101906100669190610b2e565b6100ef565b005b61008760048036038101906100829190610b2e565b6102c6565b005b34801561009557600080fd5b506100b060048036038101906100ab9190610b2e565b6105d8565b6040516100bd9190610bed565b60405180910390f35b3480156100d257600080fd5b506100ed60048036038101906100e89190610c08565b61066f565b005b60006001600083815260200190815260200160002090503373ffffffffffffffffffffffffffffffffffffffff168160010160009054906101000a900473ffffffffffffffffffffffffffffffffffffffff1673ffffffffffffffffffffffffffffffffffffffff1614610198576040517f08c379a000000000000000000000000000000000000000000000000000000000815260040161018f90610ccb565b60405180910390fd5b600260009054906101000a900473ffffffffffffffffffffffffffffffffffffffff1673ffffffffffffffffffffffffffffffffffffffff16639ce058e28360006040518363ffffffff1660e01b81526004016101f6929190610d71565b600060405180830381600087803b15801561021057600080fd5b505af1158015610224573d6000803e3d6000fd5b50505050600260009054906101000a900473ffffffffffffffffffffffffffffffffffffffff1673ffffffffffffffffffffffffffffffffffffffff166323b872dd3033856040518463ffffffff1660e01b815260040161028793929190610dbb565b600060405180830381600087803b1580156102a157600080fd5b505af11580156102b5573d6000803e3d6000fd5b505050506102c282610a1f565b5050565b600060016000838152602001908152602001600020905080600201543414610323576040517f08c379a000000000000000000000000000000000000000000000000000000000815260040161031a90610e3e565b60405180910390fd5b8060010160009054906101000a900473ffffffffffffffffffffffffffffffffffffffff1673ffffffffffffffffffffffffffffffffffffffff166108fc349081150290604051600060405180830381858888f1935050505015801561038d573d6000803e3d6000fd5b50600260009054906101000a900473ffffffffffffffffffffffffffffffffffffffff1673ffffffffffffffffffffffffffffffffffffffff16639ce058e28360006040518363ffffffff1660e01b81526004016103ec929190610d71565b600060405180830381600087803b15801561040657600080fd5b505af115801561041a573d6000803e3d6000fd5b50505050600260009054906101000a900473ffffffffffffffffffffffffffffffffffffffff1673ffffffffffffffffffffffffffffffffffffffff166352d69dff83336040518363ffffffff1660e01b815260040161047b929190610e5e565b600060405180830381600087803b15801561049557600080fd5b505af11580156104a9573d6000803e3d6000fd5b50505050600260009054906101000a900473ffffffffffffffffffffffffffffffffffffffff1673ffffffffffffffffffffffffffffffffffffffff166323b872dd3033856040518463ffffffff1660e01b815260040161050c93929190610dbb565b600060405180830381600087803b15801561052657600080fd5b505af115801561053a573d6000803e3d6000fd5b505050506105486000610aa6565b600160008381526020019081526020016000206000808201600090556001820160006101000a81549073ffffffffffffffffffffffffffffffffffffffff0219169055600282016000905550507f787925e050e8cb8dba61a675397ced37ba5304fc76b70c50b62753eed7c9ef64823383600201546040516105cc93929190610e87565b60405180910390a15050565b6105e0610abc565b60016000838152602001908152602001600020604051806060016040529081600082015481526020016001820160009054906101000a900473ffffffffffffffffffffffffffffffffffffffff1673ffffffffffffffffffffffffffffffffffffffff1673ffffffffffffffffffffffffffffffffffffffff1681526020016002820154815250509050919050565b3073ffffffffffffffffffffffffffffffffffffffff16600260009054906101000a900473ffffffffffffffffffffffffffffffffffffffff1673ffffffffffffffffffffffffffffffffffffffff1663081812fc846040518263ffffffff1660e01b81526004016106e19190610ebe565b602060405180830381865afa1580156106fe573d6000803e3d6000fd5b505050506040513d601f19601f820116820180604052508101906107229190610f05565b73ffffffffffffffffffffffffffffffffffffffff1614806107de5750600260009054906101000a900473ffffffffffffffffffffffffffffffffffffffff1673ffffffffffffffffffffffffffffffffffffffff1663e985e9c533306040518363ffffffff1660e01b815260040161079c929190610f32565b602060405180830381865afa1580156107b9573d6000803e3d6000fd5b505050506040513d601f19601f820116820180604052508101906107dd9190610f93565b5b61081d576040517f08c379a00000000000000000000000000000000000000000000000000000000081526004016108149061100c565b60405180910390fd5b60405180606001604052808381526020013373ffffffffffffffffffffffffffffffffffffffff16815260200182815250600160008481526020019081526020016000206000820151816000015560208201518160010160006101000a81548173ffffffffffffffffffffffffffffffffffffffff021916908373ffffffffffffffffffffffffffffffffffffffff16021790555060408201518160020155905050600260009054906101000a900473ffffffffffffffffffffffffffffffffffffffff1673ffffffffffffffffffffffffffffffffffffffff166323b872dd3330856040518463ffffffff1660e01b815260040161091e93929190610dbb565b600060405180830381600087803b15801561093857600080fd5b505af115801561094c573d6000803e3d6000fd5b50505050600260009054906101000a900473ffffffffffffffffffffffffffffffffffffffff1673ffffffffffffffffffffffffffffffffffffffff16639ce058e28360016040518363ffffffff1660e01b81526004016109ae929190610d71565b600060405180830381600087803b1580156109c857600080fd5b505af11580156109dc573d6000803e3d6000fd5b505050507fec759846c972e2aa7c351c68392f7388dfb8511b1d2be0ee4cdfbc50011f7152823383604051610a1393929190610e87565b60405180910390a15050565b600160008281526020019081526020016000206000808201600090556001820160006101000a81549073ffffffffffffffffffffffffffffffffffffffff0219169055600282016000905550507fbc80a5109fd83a9d22362c3fa42bae8ef6c2d5ffcdf82577535d7ea72a1ee45d81604051610a9b9190610ebe565b60405180910390a150565b6001816000016000828254019250508190555050565b604051806060016040528060008152602001600073ffffffffffffffffffffffffffffffffffffffff168152602001600081525090565b600080fd5b6000819050919050565b610b0b81610af8565b8114610b1657600080fd5b50565b600081359050610b2881610b02565b92915050565b600060208284031215610b4457610b43610af3565b5b6000610b5284828501610b19565b91505092915050565b610b6481610af8565b82525050565b600073ffffffffffffffffffffffffffffffffffffffff82169050919050565b6000610b9582610b6a565b9050919050565b610ba581610b8a565b82525050565b606082016000820151610bc16000850182610b5b565b506020820151610bd46020850182610b9c565b506040820151610be76040850182610b5b565b50505050565b6000606082019050610c026000830184610bab565b92915050565b60008060408385031215610c1f57610c1e610af3565b5b6000610c2d85828601610b19565b9250506020610c3e85828601610b19565b9150509250929050565b600082825260208201905092915050565b7f4f6e6c79207468652073656c6c65722063616e2063616e63656c20746865207360008201527f616c652e00000000000000000000000000000000000000000000000000000000602082015250565b6000610cb5602483610c48565b9150610cc082610c59565b604082019050919050565b60006020820190508181036000830152610ce481610ca8565b9050919050565b610cf481610af8565b82525050565b7f4e487b7100000000000000000000000000000000000000000000000000000000600052602160045260246000fd5b60038110610d3a57610d39610cfa565b5b50565b6000819050610d4b82610d29565b919050565b6000610d5b82610d3d565b9050919050565b610d6b81610d50565b82525050565b6000604082019050610d866000830185610ceb565b610d936020830184610d62565b9392505050565b6000610da582610b6a565b9050919050565b610db581610d9a565b82525050565b6000606082019050610dd06000830186610dac565b610ddd6020830185610dac565b610dea6040830184610ceb565b949350505050565b7f506c65617365207375626d6974207468652061736b696e672070726963650000600082015250565b6000610e28601e83610c48565b9150610e3382610df2565b602082019050919050565b60006020820190508181036000830152610e5781610e1b565b9050919050565b6000604082019050610e736000830185610ceb565b610e806020830184610dac565b9392505050565b6000606082019050610e9c6000830186610ceb565b610ea96020830185610dac565b610eb66040830184610ceb565b949350505050565b6000602082019050610ed36000830184610ceb565b92915050565b610ee281610d9a565b8114610eed57600080fd5b50565b600081519050610eff81610ed9565b92915050565b600060208284031215610f1b57610f1a610af3565b5b6000610f2984828501610ef0565b91505092915050565b6000604082019050610f476000830185610dac565b610f546020830184610dac565b9392505050565b60008115159050919050565b610f7081610f5b565b8114610f7b57600080fd5b50565b600081519050610f8d81610f67565b92915050565b600060208284031215610fa957610fa8610af3565b5b6000610fb784828501610f7e565b91505092915050565b7f4552433732313a20696e73756666696369656e7420617070726f76616c000000600082015250565b6000610ff6601d83610c48565b915061100182610fc0565b602082019050919050565b6000602082019050818103600083015261102581610fe9565b905091905056fea26469706673582212206412cc3fafe5aea6b95c8bb5e57d388f5402230d8a18052329f9d73d9e29f37164736f6c634300080d0033",
  "immutableReferences": {},
  "source": "// SPDX-License-Identifier: Unlicense\r\npragma solidity ^0.8.0;\r\n\r\nimport \"./NFT.sol\";\r\nimport \"@openzeppelin/contracts/utils/Counters.sol\";\r\n\r\ncontract Marketplace {\r\n    using Counters for Counters.Counter;\r\n\r\n    Counters.Counter private _itemsSold;\r\n\r\n    struct MarketItem {\r\n        uint256 tokenId;\r\n        address payable seller;\r\n        uint256 price;\r\n    }\r\n\r\n    mapping(uint256 => MarketItem) private idMarketItem;\r\n\r\n    event MarketItemCreated(uint256 tokenId, address seller, uint256 price);\r\n    event TokenBought(uint256 tokenId, address buyer, uint256 price);\r\n    event SellItemDeleted(uint256 tokenId);\r\n\r\n    NFT private nftContract;\r\n\r\n    constructor(NFT _nftContract) {\r\n        nftContract = _nftContract;\r\n    }\r\n\r\n    // List NFT for sale\r\n    function createSell(uint256 tokenId, uint256 price) public {\r\n        // Check for approval\r\n        require(\r\n            nftContract.getApproved(tokenId) == address(this) || \r\n            nftContract.isApprovedForAll(msg.sender, address(this)), \r\n            \"ERC721: insufficient approval\"\r\n        );\r\n\r\n        // Create market item\r\n        idMarketItem[tokenId] = MarketItem(tokenId, payable(msg.sender), price);\r\n        \r\n        // Transfer NFT to marketplace\r\n        nftContract.transferFrom(msg.sender, address(this), tokenId);\r\n        nftContract.updateStatusMyNFT(tokenId, NFT.NFTStatus.Sell);\r\n        emit MarketItemCreated(tokenId, msg.sender, price);\r\n    }\r\n\r\n    // Buy NFT instantly\r\n    function buyNFT(uint256 tokenId) public payable {\r\n        MarketItem storage item = idMarketItem[tokenId];\r\n        require(msg.value == item.price, \"Please submit the asking price\");\r\n\r\n        // Transfer the funds to the seller\r\n        item.seller.transfer(msg.value);\r\n        //update satust\r\n        nftContract.updateStatusMyNFT(tokenId, NFT.NFTStatus.None);\r\n\r\n        // update owner \r\n        nftContract.updateOwnerMyNFT(tokenId,msg.sender);\r\n        // Transfer the NFT to the buyer\r\n        nftContract.transferFrom(address(this), msg.sender, tokenId);\r\n\r\n        // Increment sold items count and delete market item\r\n        _itemsSold.increment();\r\n        delete idMarketItem[tokenId];\r\n\r\n        emit TokenBought(tokenId, msg.sender, item.price);\r\n    }\r\n\r\n    // Cancel the sale of the NFT\r\n    function cancelSell(uint256 tokenId) public {\r\n        MarketItem storage item = idMarketItem[tokenId];\r\n\r\n        // Ensure the caller is the seller\r\n        require(item.seller == payable(msg.sender), \"Only the seller can cancel the sale.\");\r\n        nftContract.updateStatusMyNFT(tokenId, NFT.NFTStatus.None);\r\n        // Transfer the NFT back to the seller\r\n        nftContract.transferFrom(address(this), msg.sender, tokenId);\r\n        \r\n        // Delete the market item\r\n        deleteTokenSell(tokenId);\r\n    }\r\n\r\n    // Get market item details\r\n    function getMarketItemDetails(uint256 tokenId) public view returns (MarketItem memory) {\r\n        return idMarketItem[tokenId];\r\n    }\r\n\r\n\r\n\r\n    // Delete market item\r\n    function deleteTokenSell(uint256 tokenId) private {\r\n        delete idMarketItem[tokenId];\r\n        emit SellItemDeleted(tokenId);\r\n    }\r\n}\r\n",
  "sourcePath": "D:\\doan4Nft\\smartcontract\\contracts\\Marketplace.sol",
  "compiler": {
    "name": "solc",
    "version": "0.8.13+commit.abaa5c0e.Emscripten.clang"
  },
  "schemaVersion": "3.4.16",
  "updatedAt": "2024-11-12T15:25:01.272Z",
  "networkType": "ethereum",
  "devdoc": {
    "kind": "dev",
    "methods": {},
    "version": 1
  },
  "userdoc": {
    "kind": "user",
    "methods": {},
    "version": 1
  }
}