{
  "contractName": "NFT",
  "abi": [
    {
      "inputs": [],
      "stateMutability": "nonpayable",
      "type": "constructor"
    },
    {
      "anonymous": false,
      "inputs": [
        {
          "indexed": true,
          "internalType": "address",
          "name": "owner",
          "type": "address"
        },
        {
          "indexed": true,
          "internalType": "address",
          "name": "approved",
          "type": "address"
        },
        {
          "indexed": true,
          "internalType": "uint256",
          "name": "tokenId",
          "type": "uint256"
        }
      ],
      "name": "Approval",
      "type": "event"
    },
    {
      "anonymous": false,
      "inputs": [
        {
          "indexed": true,
          "internalType": "address",
          "name": "owner",
          "type": "address"
        },
        {
          "indexed": true,
          "internalType": "address",
          "name": "operator",
          "type": "address"
        },
        {
          "indexed": false,
          "internalType": "bool",
          "name": "approved",
          "type": "bool"
        }
      ],
      "name": "ApprovalForAll",
      "type": "event"
    },
    {
      "anonymous": false,
      "inputs": [
        {
          "indexed": false,
          "internalType": "address",
          "name": "marketplaceAddress",
          "type": "address"
        },
        {
          "indexed": false,
          "internalType": "uint256",
          "name": "tokenId",
          "type": "uint256"
        }
      ],
      "name": "MarketplaceApproved",
      "type": "event"
    },
    {
      "anonymous": false,
      "inputs": [
        {
          "indexed": true,
          "internalType": "address",
          "name": "from",
          "type": "address"
        },
        {
          "indexed": true,
          "internalType": "address",
          "name": "to",
          "type": "address"
        },
        {
          "indexed": true,
          "internalType": "uint256",
          "name": "tokenId",
          "type": "uint256"
        }
      ],
      "name": "Transfer",
      "type": "event"
    },
    {
      "anonymous": false,
      "inputs": [
        {
          "indexed": false,
          "internalType": "uint256",
          "name": "tokenId",
          "type": "uint256"
        },
        {
          "indexed": false,
          "internalType": "string",
          "name": "title",
          "type": "string"
        },
        {
          "indexed": false,
          "internalType": "string",
          "name": "Description",
          "type": "string"
        },
        {
          "indexed": false,
          "internalType": "address payable",
          "name": "owner",
          "type": "address"
        },
        {
          "indexed": false,
          "internalType": "bool",
          "name": "show",
          "type": "bool"
        },
        {
          "indexed": false,
          "internalType": "string",
          "name": "image",
          "type": "string"
        }
      ],
      "name": "createListMyNFT",
      "type": "event"
    },
    {
      "anonymous": false,
      "inputs": [
        {
          "indexed": false,
          "internalType": "uint256",
          "name": "tokenId",
          "type": "uint256"
        },
        {
          "indexed": false,
          "internalType": "address payable",
          "name": "owner",
          "type": "address"
        },
        {
          "indexed": false,
          "internalType": "bool",
          "name": "show",
          "type": "bool"
        },
        {
          "indexed": false,
          "internalType": "enum NFT.NFTStatus",
          "name": "status",
          "type": "uint8"
        }
      ],
      "name": "updateListMyNFT",
      "type": "event"
    },
    {
      "inputs": [
        {
          "internalType": "address",
          "name": "to",
          "type": "address"
        },
        {
          "internalType": "uint256",
          "name": "tokenId",
          "type": "uint256"
        }
      ],
      "name": "approve",
      "outputs": [],
      "stateMutability": "nonpayable",
      "type": "function"
    },
    {
      "inputs": [
        {
          "internalType": "address",
          "name": "owner",
          "type": "address"
        }
      ],
      "name": "balanceOf",
      "outputs": [
        {
          "internalType": "uint256",
          "name": "",
          "type": "uint256"
        }
      ],
      "stateMutability": "view",
      "type": "function",
      "constant": true
    },
    {
      "inputs": [
        {
          "internalType": "uint256",
          "name": "tokenId",
          "type": "uint256"
        }
      ],
      "name": "getApproved",
      "outputs": [
        {
          "internalType": "address",
          "name": "",
          "type": "address"
        }
      ],
      "stateMutability": "view",
      "type": "function",
      "constant": true
    },
    {
      "inputs": [
        {
          "internalType": "address",
          "name": "owner",
          "type": "address"
        },
        {
          "internalType": "address",
          "name": "operator",
          "type": "address"
        }
      ],
      "name": "isApprovedForAll",
      "outputs": [
        {
          "internalType": "bool",
          "name": "",
          "type": "bool"
        }
      ],
      "stateMutability": "view",
      "type": "function",
      "constant": true
    },
    {
      "inputs": [],
      "name": "name",
      "outputs": [
        {
          "internalType": "string",
          "name": "",
          "type": "string"
        }
      ],
      "stateMutability": "view",
      "type": "function",
      "constant": true
    },
    {
      "inputs": [],
      "name": "owner",
      "outputs": [
        {
          "internalType": "address payable",
          "name": "",
          "type": "address"
        }
      ],
      "stateMutability": "view",
      "type": "function",
      "constant": true
    },
    {
      "inputs": [
        {
          "internalType": "uint256",
          "name": "tokenId",
          "type": "uint256"
        }
      ],
      "name": "ownerOf",
      "outputs": [
        {
          "internalType": "address",
          "name": "",
          "type": "address"
        }
      ],
      "stateMutability": "view",
      "type": "function",
      "constant": true
    },
    {
      "inputs": [
        {
          "internalType": "address",
          "name": "from",
          "type": "address"
        },
        {
          "internalType": "address",
          "name": "to",
          "type": "address"
        },
        {
          "internalType": "uint256",
          "name": "tokenId",
          "type": "uint256"
        }
      ],
      "name": "safeTransferFrom",
      "outputs": [],
      "stateMutability": "nonpayable",
      "type": "function"
    },
    {
      "inputs": [
        {
          "internalType": "address",
          "name": "from",
          "type": "address"
        },
        {
          "internalType": "address",
          "name": "to",
          "type": "address"
        },
        {
          "internalType": "uint256",
          "name": "tokenId",
          "type": "uint256"
        },
        {
          "internalType": "bytes",
          "name": "_data",
          "type": "bytes"
        }
      ],
      "name": "safeTransferFrom",
      "outputs": [],
      "stateMutability": "nonpayable",
      "type": "function"
    },
    {
      "inputs": [
        {
          "internalType": "address",
          "name": "operator",
          "type": "address"
        },
        {
          "internalType": "bool",
          "name": "approved",
          "type": "bool"
        }
      ],
      "name": "setApprovalForAll",
      "outputs": [],
      "stateMutability": "nonpayable",
      "type": "function"
    },
    {
      "inputs": [
        {
          "internalType": "bytes4",
          "name": "interfaceId",
          "type": "bytes4"
        }
      ],
      "name": "supportsInterface",
      "outputs": [
        {
          "internalType": "bool",
          "name": "",
          "type": "bool"
        }
      ],
      "stateMutability": "view",
      "type": "function",
      "constant": true
    },
    {
      "inputs": [],
      "name": "symbol",
      "outputs": [
        {
          "internalType": "string",
          "name": "",
          "type": "string"
        }
      ],
      "stateMutability": "view",
      "type": "function",
      "constant": true
    },
    {
      "inputs": [
        {
          "internalType": "uint256",
          "name": "tokenId",
          "type": "uint256"
        }
      ],
      "name": "tokenURI",
      "outputs": [
        {
          "internalType": "string",
          "name": "",
          "type": "string"
        }
      ],
      "stateMutability": "view",
      "type": "function",
      "constant": true
    },
    {
      "inputs": [
        {
          "internalType": "address",
          "name": "from",
          "type": "address"
        },
        {
          "internalType": "address",
          "name": "to",
          "type": "address"
        },
        {
          "internalType": "uint256",
          "name": "tokenId",
          "type": "uint256"
        }
      ],
      "name": "transferFrom",
      "outputs": [],
      "stateMutability": "nonpayable",
      "type": "function"
    },
    {
      "inputs": [
        {
          "internalType": "uint256",
          "name": "tokenId",
          "type": "uint256"
        },
        {
          "internalType": "enum NFT.NFTStatus",
          "name": "_status",
          "type": "uint8"
        }
      ],
      "name": "updateStatusMyNFT",
      "outputs": [],
      "stateMutability": "nonpayable",
      "type": "function"
    },
    {
      "inputs": [
        {
          "internalType": "uint256",
          "name": "tokenId",
          "type": "uint256"
        },
        {
          "internalType": "address",
          "name": "_owner",
          "type": "address"
        }
      ],
      "name": "updateOwnerMyNFT",
      "outputs": [],
      "stateMutability": "nonpayable",
      "type": "function"
    },
    {
      "inputs": [
        {
          "internalType": "address",
          "name": "marketplaceAddress",
          "type": "address"
        },
        {
          "internalType": "uint256",
          "name": "tokenId",
          "type": "uint256"
        }
      ],
      "name": "approveMarketplace",
      "outputs": [],
      "stateMutability": "nonpayable",
      "type": "function"
    },
    {
      "inputs": [
        {
          "internalType": "string",
          "name": "tokenUrl",
          "type": "string"
        },
        {
          "internalType": "string",
          "name": "title",
          "type": "string"
        },
        {
          "internalType": "string",
          "name": "Description",
          "type": "string"
        }
      ],
      "name": "createToken",
      "outputs": [
        {
          "internalType": "uint256",
          "name": "",
          "type": "uint256"
        }
      ],
      "stateMutability": "payable",
      "type": "function",
      "payable": true
    },
    {
      "inputs": [
        {
          "internalType": "uint256",
          "name": "tokenId",
          "type": "uint256"
        },
        {
          "internalType": "bool",
          "name": "show",
          "type": "bool"
        }
      ],
      "name": "ShowOnOrOffNFT",
      "outputs": [],
      "stateMutability": "nonpayable",
      "type": "function"
    },
    {
      "inputs": [],
      "name": "getMyNFTs",
      "outputs": [
        {
          "components": [
            {
              "internalType": "uint256",
              "name": "tokenId",
              "type": "uint256"
            },
            {
              "internalType": "string",
              "name": "title",
              "type": "string"
            },
            {
              "internalType": "string",
              "name": "Description",
              "type": "string"
            },
            {
              "internalType": "address payable",
              "name": "owner",
              "type": "address"
            },
            {
              "internalType": "bool",
              "name": "show",
              "type": "bool"
            },
            {
              "internalType": "string",
              "name": "image",
              "type": "string"
            },
            {
              "internalType": "enum NFT.NFTStatus",
              "name": "status",
              "type": "uint8"
            }
          ],
          "internalType": "struct NFT.myNFT[]",
          "name": "",
          "type": "tuple[]"
        }
      ],
      "stateMutability": "view",
      "type": "function",
      "constant": true
    },
    {
      "inputs": [
        {
          "internalType": "address",
          "name": "nftOwner",
          "type": "address"
        }
      ],
      "name": "getOwnerMyNFTs",
      "outputs": [
        {
          "components": [
            {
              "internalType": "uint256",
              "name": "tokenId",
              "type": "uint256"
            },
            {
              "internalType": "string",
              "name": "title",
              "type": "string"
            },
            {
              "internalType": "string",
              "name": "Description",
              "type": "string"
            },
            {
              "internalType": "address payable",
              "name": "owner",
              "type": "address"
            },
            {
              "internalType": "bool",
              "name": "show",
              "type": "bool"
            },
            {
              "internalType": "string",
              "name": "image",
              "type": "string"
            },
            {
              "internalType": "enum NFT.NFTStatus",
              "name": "status",
              "type": "uint8"
            }
          ],
          "internalType": "struct NFT.myNFT[]",
          "name": "",
          "type": "tuple[]"
        }
      ],
      "stateMutability": "view",
      "type": "function",
      "constant": true
    },
    {
      "inputs": [
        {
          "internalType": "address",
          "name": "nftOwner",
          "type": "address"
        }
      ],
      "name": "getOwnerNFTsSell",
      "outputs": [
        {
          "components": [
            {
              "internalType": "uint256",
              "name": "tokenId",
              "type": "uint256"
            },
            {
              "internalType": "string",
              "name": "title",
              "type": "string"
            },
            {
              "internalType": "string",
              "name": "Description",
              "type": "string"
            },
            {
              "internalType": "address payable",
              "name": "owner",
              "type": "address"
            },
            {
              "internalType": "bool",
              "name": "show",
              "type": "bool"
            },
            {
              "internalType": "string",
              "name": "image",
              "type": "string"
            },
            {
              "internalType": "enum NFT.NFTStatus",
              "name": "status",
              "type": "uint8"
            }
          ],
          "internalType": "struct NFT.myNFT[]",
          "name": "",
          "type": "tuple[]"
        }
      ],
      "stateMutability": "view",
      "type": "function",
      "constant": true
    },
    {
      "inputs": [
        {
          "internalType": "address",
          "name": "nftOwner",
          "type": "address"
        }
      ],
      "name": "getOwnerNFTsAuction",
      "outputs": [
        {
          "components": [
            {
              "internalType": "uint256",
              "name": "tokenId",
              "type": "uint256"
            },
            {
              "internalType": "string",
              "name": "title",
              "type": "string"
            },
            {
              "internalType": "string",
              "name": "Description",
              "type": "string"
            },
            {
              "internalType": "address payable",
              "name": "owner",
              "type": "address"
            },
            {
              "internalType": "bool",
              "name": "show",
              "type": "bool"
            },
            {
              "internalType": "string",
              "name": "image",
              "type": "string"
            },
            {
              "internalType": "enum NFT.NFTStatus",
              "name": "status",
              "type": "uint8"
            }
          ],
          "internalType": "struct NFT.myNFT[]",
          "name": "",
          "type": "tuple[]"
        }
      ],
      "stateMutability": "view",
      "type": "function",
      "constant": true
    },
    {
      "inputs": [],
      "name": "getNFTsSell",
      "outputs": [
        {
          "components": [
            {
              "internalType": "uint256",
              "name": "tokenId",
              "type": "uint256"
            },
            {
              "internalType": "string",
              "name": "title",
              "type": "string"
            },
            {
              "internalType": "string",
              "name": "Description",
              "type": "string"
            },
            {
              "internalType": "address payable",
              "name": "owner",
              "type": "address"
            },
            {
              "internalType": "bool",
              "name": "show",
              "type": "bool"
            },
            {
              "internalType": "string",
              "name": "image",
              "type": "string"
            },
            {
              "internalType": "enum NFT.NFTStatus",
              "name": "status",
              "type": "uint8"
            }
          ],
          "internalType": "struct NFT.myNFT[]",
          "name": "",
          "type": "tuple[]"
        }
      ],
      "stateMutability": "view",
      "type": "function",
      "constant": true
    },
    {
      "inputs": [],
      "name": "getNFTsAuction",
      "outputs": [
        {
          "components": [
            {
              "internalType": "uint256",
              "name": "tokenId",
              "type": "uint256"
            },
            {
              "internalType": "string",
              "name": "title",
              "type": "string"
            },
            {
              "internalType": "string",
              "name": "Description",
              "type": "string"
            },
            {
              "internalType": "address payable",
              "name": "owner",
              "type": "address"
            },
            {
              "internalType": "bool",
              "name": "show",
              "type": "bool"
            },
            {
              "internalType": "string",
              "name": "image",
              "type": "string"
            },
            {
              "internalType": "enum NFT.NFTStatus",
              "name": "status",
              "type": "uint8"
            }
          ],
          "internalType": "struct NFT.myNFT[]",
          "name": "",
          "type": "tuple[]"
        }
      ],
      "stateMutability": "view",
      "type": "function",
      "constant": true
    },
    {
      "inputs": [
        {
          "internalType": "uint256",
          "name": "tokenId",
          "type": "uint256"
        }
      ],
      "name": "getNFTDetails",
      "outputs": [
        {
          "components": [
            {
              "internalType": "uint256",
              "name": "tokenId",
              "type": "uint256"
            },
            {
              "internalType": "string",
              "name": "title",
              "type": "string"
            },
            {
              "internalType": "string",
              "name": "Description",
              "type": "string"
            },
            {
              "internalType": "address payable",
              "name": "owner",
              "type": "address"
            },
            {
              "internalType": "bool",
              "name": "show",
              "type": "bool"
            },
            {
              "internalType": "string",
              "name": "image",
              "type": "string"
            },
            {
              "internalType": "enum NFT.NFTStatus",
              "name": "status",
              "type": "uint8"
            }
          ],
          "internalType": "struct NFT.myNFT",
          "name": "",
          "type": "tuple"
        }
      ],
      "stateMutability": "view",
      "type": "function",
      "constant": true
    }
  ],
  "bytecode": "0x60806040523480156200001157600080fd5b506040518060400160405280601581526020017f4e4654204d61726b6574706c61636520546f6b656e00000000000000000000008152506040518060400160405280600481526020017f4e46544d0000000000000000000000000000000000000000000000000000000081525081600090805190602001906200009692919062000101565b508060019080519060200190620000af92919062000101565b505050600160078190555033600960006101000a81548173ffffffffffffffffffffffffffffffffffffffff021916908373ffffffffffffffffffffffffffffffffffffffff16021790555062000215565b8280546200010f90620001e0565b90600052602060002090601f0160209004810192826200013357600085556200017f565b82601f106200014e57805160ff19168380011785556200017f565b828001600101855582156200017f579182015b828111156200017e57825182559160200191906001019062000161565b5b5090506200018e919062000192565b5090565b5b80821115620001ad57600081600090555060010162000193565b5090565b7f4e487b7100000000000000000000000000000000000000000000000000000000600052602260045260246000fd5b60006002820490506001821680620001f957607f821691505b6020821081036200020f576200020e620001b1565b5b50919050565b615bae80620002256000396000f3fe6080604052600436106101815760003560e01c80637768d325116100d1578063a22cb4651161008a578063d802ca6211610064578063d802ca62146105a9578063dede7a2e146105d4578063e4db362414610611578063e985e9c51461064e57610181565b8063a22cb4651461051a578063b88d4fde14610543578063c87b56dd1461056c57610181565b80637768d325146103f157806382260f351461042e5780638da5cb5b1461046b57806394aed7d01461049657806395d89b41146104c65780639ce058e2146104f157610181565b806323b872dd1161013e57806352d69dff1161011857806352d69dff14610323578063629cb2e41461034c5780636352211e1461037757806370a08231146103b457610181565b806323b872dd146102a657806332c50b79146102cf57806342842e0e146102fa57610181565b806301ffc9a714610186578063031850db146101c357806306fdde03146101ec578063081812fc14610217578063095ea7b3146102545780632326cd851461027d575b600080fd5b34801561019257600080fd5b506101ad60048036038101906101a89190614201565b61068b565b6040516101ba9190614249565b60405180910390f35b3480156101cf57600080fd5b506101ea60048036038101906101e591906142c6565b61076d565b005b3480156101f857600080fd5b506102016108ac565b60405161020e919061439f565b60405180910390f35b34801561022357600080fd5b5061023e600480360381019061023991906143c1565b61093e565b60405161024b919061442f565b60405180910390f35b34801561026057600080fd5b5061027b60048036038101906102769190614476565b6109c3565b005b34801561028957600080fd5b506102a4600480360381019061029f9190614476565b610ada565b005b3480156102b257600080fd5b506102cd60048036038101906102c891906144b6565b610b97565b005b3480156102db57600080fd5b506102e4610bf7565b6040516102f19190614775565b60405180910390f35b34801561030657600080fd5b50610321600480360381019061031c91906144b6565b611041565b005b34801561032f57600080fd5b5061034a60048036038101906103459190614797565b611061565b005b34801561035857600080fd5b506103616111ef565b60405161036e9190614775565b60405180910390f35b34801561038357600080fd5b5061039e600480360381019061039991906143c1565b61163a565b6040516103ab919061442f565b60405180910390f35b3480156103c057600080fd5b506103db60048036038101906103d691906147d7565b6116eb565b6040516103e89190614813565b60405180910390f35b3480156103fd57600080fd5b50610418600480360381019061041391906147d7565b6117a2565b6040516104259190614775565b60405180910390f35b34801561043a57600080fd5b50610455600480360381019061045091906143c1565b611c5d565b60405161046291906148d8565b60405180910390f35b34801561047757600080fd5b50610480611fa5565b60405161048d9190614909565b60405180910390f35b6104b060048036038101906104ab9190614a59565b611fcb565b6040516104bd9190614813565b60405180910390f35b3480156104d257600080fd5b506104db6121b3565b6040516104e8919061439f565b60405180910390f35b3480156104fd57600080fd5b5061051860048036038101906105139190614b25565b612245565b005b34801561052657600080fd5b50610541600480360381019061053c9190614b65565b6123b4565b005b34801561054f57600080fd5b5061056a60048036038101906105659190614c46565b6123ca565b005b34801561057857600080fd5b50610593600480360381019061058e91906143c1565b61242c565b6040516105a0919061439f565b60405180910390f35b3480156105b557600080fd5b506105be61257d565b6040516105cb9190614775565b60405180910390f35b3480156105e057600080fd5b506105fb60048036038101906105f691906147d7565b6129c8565b6040516106089190614775565b60405180910390f35b34801561061d57600080fd5b50610638600480360381019061063391906147d7565b612e83565b6040516106459190614775565b60405180910390f35b34801561065a57600080fd5b5061067560048036038101906106709190614cc9565b61333d565b6040516106829190614249565b60405180910390f35b60007f80ac58cd000000000000000000000000000000000000000000000000000000007bffffffffffffffffffffffffffffffffffffffffffffffffffffffff1916827bffffffffffffffffffffffffffffffffffffffffffffffffffffffff1916148061075657507f5b5e139f000000000000000000000000000000000000000000000000000000007bffffffffffffffffffffffffffffffffffffffffffffffffffffffff1916827bffffffffffffffffffffffffffffffffffffffffffffffffffffffff1916145b806107665750610765826133d1565b5b9050919050565b813373ffffffffffffffffffffffffffffffffffffffff1661078e8261163a565b73ffffffffffffffffffffffffffffffffffffffff16146107e4576040517f08c379a00000000000000000000000000000000000000000000000000000000081526004016107db90614d7b565b60405180910390fd5b6000600a600085815260200190815260200160002090508215158160030160149054906101000a900460ff161515146108a657828160030160146101000a81548160ff0219169083151502179055507ff2de49bf5257dcbf095dd3b185b8db601ee2fd2840bcb1ccb80661f48bf9962e848260030160009054906101000a900473ffffffffffffffffffffffffffffffffffffffff16858460050160009054906101000a900460ff1660405161089d9493929190614daa565b60405180910390a15b50505050565b6060600080546108bb90614e1e565b80601f01602080910402602001604051908101604052809291908181526020018280546108e790614e1e565b80156109345780601f1061090957610100808354040283529160200191610934565b820191906000526020600020905b81548152906001019060200180831161091757829003601f168201915b5050505050905090565b60006109498261343b565b610988576040517f08c379a000000000000000000000000000000000000000000000000000000000815260040161097f90614ec1565b60405180910390fd5b6004600083815260200190815260200160002060009054906101000a900473ffffffffffffffffffffffffffffffffffffffff169050919050565b60006109ce8261163a565b90508073ffffffffffffffffffffffffffffffffffffffff168373ffffffffffffffffffffffffffffffffffffffff1603610a3e576040517f08c379a0000000000000000000000000000000000000000000000000000000008152600401610a3590614f53565b60405180910390fd5b8073ffffffffffffffffffffffffffffffffffffffff16610a5d6134a7565b73ffffffffffffffffffffffffffffffffffffffff161480610a8c5750610a8b81610a866134a7565b61333d565b5b610acb576040517f08c379a0000000000000000000000000000000000000000000000000000000008152600401610ac290614fe5565b60405180910390fd5b610ad583836134af565b505050565b3373ffffffffffffffffffffffffffffffffffffffff16610afa8261163a565b73ffffffffffffffffffffffffffffffffffffffff1614610b50576040517f08c379a0000000000000000000000000000000000000000000000000000000008152600401610b4790615051565b60405180910390fd5b610b5a82826109c3565b7f8be7fc58d4327b6b8513ab803ff67e8453e2a954fffc6bdc3bd4c6bda4752dbb8282604051610b8b929190615071565b60405180910390a15050565b610ba8610ba26134a7565b82613568565b610be7576040517f08c379a0000000000000000000000000000000000000000000000000000000008152600401610bde9061510c565b60405180910390fd5b610bf2838383613646565b505050565b60606000610c0560086138a1565b905060008167ffffffffffffffff811115610c2357610c2261492e565b5b604051908082528060200260200182016040528015610c5c57816020015b610c4961408b565b815260200190600190039081610c415790505b509050600080600190505b838111610f8657600280811115610c8157610c806145be565b5b600a600083815260200190815260200160002060050160009054906101000a900460ff166002811115610cb757610cb66145be565b5b03610f7357600a60008281526020019081526020016000206040518060e001604052908160008201548152602001600182018054610cf490614e1e565b80601f0160208091040260200160405190810160405280929190818152602001828054610d2090614e1e565b8015610d6d5780601f10610d4257610100808354040283529160200191610d6d565b820191906000526020600020905b815481529060010190602001808311610d5057829003601f168201915b50505050508152602001600282018054610d8690614e1e565b80601f0160208091040260200160405190810160405280929190818152602001828054610db290614e1e565b8015610dff5780601f10610dd457610100808354040283529160200191610dff565b820191906000526020600020905b815481529060010190602001808311610de257829003601f168201915b505050505081526020016003820160009054906101000a900473ffffffffffffffffffffffffffffffffffffffff1673ffffffffffffffffffffffffffffffffffffffff1673ffffffffffffffffffffffffffffffffffffffff1681526020016003820160149054906101000a900460ff16151515158152602001600482018054610e8990614e1e565b80601f0160208091040260200160405190810160405280929190818152602001828054610eb590614e1e565b8015610f025780601f10610ed757610100808354040283529160200191610f02565b820191906000526020600020905b815481529060010190602001808311610ee557829003601f168201915b505050505081526020016005820160009054906101000a900460ff166002811115610f3057610f2f6145be565b5b6002811115610f4257610f416145be565b5b81525050838381518110610f5957610f5861512c565b5b60200260200101819052508180610f6f9061518a565b9250505b8080610f7e9061518a565b915050610c67565b5060008167ffffffffffffffff811115610fa357610fa261492e565b5b604051908082528060200260200182016040528015610fdc57816020015b610fc961408b565b815260200190600190039081610fc15790505b50905060005b8281101561103657838181518110610ffd57610ffc61512c565b5b60200260200101518282815181106110185761101761512c565b5b6020026020010181905250808061102e9061518a565b915050610fe2565b508094505050505090565b61105c838383604051806020016040528060008152506123ca565b505050565b813373ffffffffffffffffffffffffffffffffffffffff166110828261163a565b73ffffffffffffffffffffffffffffffffffffffff16146110d8576040517f08c379a00000000000000000000000000000000000000000000000000000000081526004016110cf90614d7b565b60405180910390fd5b6000600a600085815260200190815260200160002090508273ffffffffffffffffffffffffffffffffffffffff168160030160009054906101000a900473ffffffffffffffffffffffffffffffffffffffff1673ffffffffffffffffffffffffffffffffffffffff16146111e957828160030160006101000a81548173ffffffffffffffffffffffffffffffffffffffff021916908373ffffffffffffffffffffffffffffffffffffffff1602179055507ff2de49bf5257dcbf095dd3b185b8db601ee2fd2840bcb1ccb80661f48bf9962e84848360030160149054906101000a900460ff168460050160009054906101000a900460ff166040516111e09493929190614daa565b60405180910390a15b50505050565b606060006111fd60086138a1565b905060008167ffffffffffffffff81111561121b5761121a61492e565b5b60405190808252806020026020018201604052801561125457816020015b61124161408b565b8152602001906001900390816112395790505b509050600080600190505b83811161157f576000600281111561127a576112796145be565b5b600a600083815260200190815260200160002060050160009054906101000a900460ff1660028111156112b0576112af6145be565b5b0361156c57600a60008281526020019081526020016000206040518060e0016040529081600082015481526020016001820180546112ed90614e1e565b80601f016020809104026020016040519081016040528092919081815260200182805461131990614e1e565b80156113665780601f1061133b57610100808354040283529160200191611366565b820191906000526020600020905b81548152906001019060200180831161134957829003601f168201915b5050505050815260200160028201805461137f90614e1e565b80601f01602080910402602001604051908101604052809291908181526020018280546113ab90614e1e565b80156113f85780601f106113cd576101008083540402835291602001916113f8565b820191906000526020600020905b8154815290600101906020018083116113db57829003601f168201915b505050505081526020016003820160009054906101000a900473ffffffffffffffffffffffffffffffffffffffff1673ffffffffffffffffffffffffffffffffffffffff1673ffffffffffffffffffffffffffffffffffffffff1681526020016003820160149054906101000a900460ff1615151515815260200160048201805461148290614e1e565b80601f01602080910402602001604051908101604052809291908181526020018280546114ae90614e1e565b80156114fb5780601f106114d0576101008083540402835291602001916114fb565b820191906000526020600020905b8154815290600101906020018083116114de57829003601f168201915b505050505081526020016005820160009054906101000a900460ff166002811115611529576115286145be565b5b600281111561153b5761153a6145be565b5b815250508383815181106115525761155161512c565b5b602002602001018190525081806115689061518a565b9250505b80806115779061518a565b91505061125f565b5060008167ffffffffffffffff81111561159c5761159b61492e565b5b6040519080825280602002602001820160405280156115d557816020015b6115c261408b565b8152602001906001900390816115ba5790505b50905060005b8281101561162f578381815181106115f6576115f561512c565b5b60200260200101518282815181106116115761161061512c565b5b602002602001018190525080806116279061518a565b9150506115db565b508094505050505090565b6000806002600084815260200190815260200160002060009054906101000a900473ffffffffffffffffffffffffffffffffffffffff169050600073ffffffffffffffffffffffffffffffffffffffff168173ffffffffffffffffffffffffffffffffffffffff16036116e2576040517f08c379a00000000000000000000000000000000000000000000000000000000081526004016116d990615244565b60405180910390fd5b80915050919050565b60008073ffffffffffffffffffffffffffffffffffffffff168273ffffffffffffffffffffffffffffffffffffffff160361175b576040517f08c379a0000000000000000000000000000000000000000000000000000000008152600401611752906152d6565b60405180910390fd5b600360008373ffffffffffffffffffffffffffffffffffffffff1673ffffffffffffffffffffffffffffffffffffffff168152602001908152602001600020549050919050565b606060006117b060086138a1565b905060008167ffffffffffffffff8111156117ce576117cd61492e565b5b60405190808252806020026020018201604052801561180757816020015b6117f461408b565b8152602001906001900390816117ec5790505b509050600080600190505b838111611ba0578573ffffffffffffffffffffffffffffffffffffffff16600a600083815260200190815260200160002060030160009054906101000a900473ffffffffffffffffffffffffffffffffffffffff1673ffffffffffffffffffffffffffffffffffffffff161480156118d1575060016002811115611899576118986145be565b5b600a600083815260200190815260200160002060050160009054906101000a900460ff1660028111156118cf576118ce6145be565b5b145b15611b8d57600a60008281526020019081526020016000206040518060e00160405290816000820154815260200160018201805461190e90614e1e565b80601f016020809104026020016040519081016040528092919081815260200182805461193a90614e1e565b80156119875780601f1061195c57610100808354040283529160200191611987565b820191906000526020600020905b81548152906001019060200180831161196a57829003601f168201915b505050505081526020016002820180546119a090614e1e565b80601f01602080910402602001604051908101604052809291908181526020018280546119cc90614e1e565b8015611a195780601f106119ee57610100808354040283529160200191611a19565b820191906000526020600020905b8154815290600101906020018083116119fc57829003601f168201915b505050505081526020016003820160009054906101000a900473ffffffffffffffffffffffffffffffffffffffff1673ffffffffffffffffffffffffffffffffffffffff1673ffffffffffffffffffffffffffffffffffffffff1681526020016003820160149054906101000a900460ff16151515158152602001600482018054611aa390614e1e565b80601f0160208091040260200160405190810160405280929190818152602001828054611acf90614e1e565b8015611b1c5780601f10611af157610100808354040283529160200191611b1c565b820191906000526020600020905b815481529060010190602001808311611aff57829003601f168201915b505050505081526020016005820160009054906101000a900460ff166002811115611b4a57611b496145be565b5b6002811115611b5c57611b5b6145be565b5b81525050838381518110611b7357611b7261512c565b5b60200260200101819052508180611b899061518a565b9250505b8080611b989061518a565b915050611812565b5060008167ffffffffffffffff811115611bbd57611bbc61492e565b5b604051908082528060200260200182016040528015611bf657816020015b611be361408b565b815260200190600190039081611bdb5790505b50905060005b82811015611c5057838181518110611c1757611c1661512c565b5b6020026020010151828281518110611c3257611c3161512c565b5b60200260200101819052508080611c489061518a565b915050611bfc565b5080945050505050919050565b611c6561408b565b6000600a600084815260200190815260200160002090508060030160149054906101000a900460ff16611d25573373ffffffffffffffffffffffffffffffffffffffff168160030160009054906101000a900473ffffffffffffffffffffffffffffffffffffffff1673ffffffffffffffffffffffffffffffffffffffff1614611d24576040517f08c379a0000000000000000000000000000000000000000000000000000000008152600401611d1b90615342565b60405180910390fd5b5b806040518060e001604052908160008201548152602001600182018054611d4b90614e1e565b80601f0160208091040260200160405190810160405280929190818152602001828054611d7790614e1e565b8015611dc45780601f10611d9957610100808354040283529160200191611dc4565b820191906000526020600020905b815481529060010190602001808311611da757829003601f168201915b50505050508152602001600282018054611ddd90614e1e565b80601f0160208091040260200160405190810160405280929190818152602001828054611e0990614e1e565b8015611e565780601f10611e2b57610100808354040283529160200191611e56565b820191906000526020600020905b815481529060010190602001808311611e3957829003601f168201915b505050505081526020016003820160009054906101000a900473ffffffffffffffffffffffffffffffffffffffff1673ffffffffffffffffffffffffffffffffffffffff1673ffffffffffffffffffffffffffffffffffffffff1681526020016003820160149054906101000a900460ff16151515158152602001600482018054611ee090614e1e565b80601f0160208091040260200160405190810160405280929190818152602001828054611f0c90614e1e565b8015611f595780601f10611f2e57610100808354040283529160200191611f59565b820191906000526020600020905b815481529060010190602001808311611f3c57829003601f168201915b505050505081526020016005820160009054906101000a900460ff166002811115611f8757611f866145be565b5b6002811115611f9957611f986145be565b5b81525050915050919050565b600960009054906101000a900473ffffffffffffffffffffffffffffffffffffffff1681565b6000611fd760086138af565b6000611fe360086138a1565b9050611fef33826138c5565b611ff98186613a92565b6040518060e001604052808281526020018581526020018481526020013373ffffffffffffffffffffffffffffffffffffffff16815260200160011515815260200186815260200160006002811115612055576120546145be565b5b815250600a60008381526020019081526020016000206000820151816000015560208201518160010190805190602001906120919291906140f2565b5060408201518160020190805190602001906120ae9291906140f2565b5060608201518160030160006101000a81548173ffffffffffffffffffffffffffffffffffffffff021916908373ffffffffffffffffffffffffffffffffffffffff16021790555060808201518160030160146101000a81548160ff02191690831515021790555060a08201518160040190805190602001906121329291906140f2565b5060c08201518160050160006101000a81548160ff0219169083600281111561215e5761215d6145be565b5b02179055509050507f71152cf583d14e213b257683b5361a8842071b28b59f0cc3774288332df63bb48185853360018a6040516121a096959493929190615362565b60405180910390a1809150509392505050565b6060600180546121c290614e1e565b80601f01602080910402602001604051908101604052809291908181526020018280546121ee90614e1e565b801561223b5780601f106122105761010080835404028352916020019161223b565b820191906000526020600020905b81548152906001019060200180831161221e57829003601f168201915b5050505050905090565b813373ffffffffffffffffffffffffffffffffffffffff166122668261163a565b73ffffffffffffffffffffffffffffffffffffffff16146122bc576040517f08c379a00000000000000000000000000000000000000000000000000000000081526004016122b390614d7b565b60405180910390fd5b6000600a600085815260200190815260200160002090508260028111156122e6576122e56145be565b5b8160050160009054906101000a900460ff16600281111561230a576123096145be565b5b146123ae57828160050160006101000a81548160ff02191690836002811115612336576123356145be565b5b02179055507ff2de49bf5257dcbf095dd3b185b8db601ee2fd2840bcb1ccb80661f48bf9962e848260030160009054906101000a900473ffffffffffffffffffffffffffffffffffffffff168360030160149054906101000a900460ff16866040516123a59493929190614daa565b60405180910390a15b50505050565b6123c66123bf6134a7565b8383613b06565b5050565b6123db6123d56134a7565b83613568565b61241a576040517f08c379a00000000000000000000000000000000000000000000000000000000081526004016124119061510c565b60405180910390fd5b61242684848484613c72565b50505050565b60606124378261343b565b612476576040517f08c379a000000000000000000000000000000000000000000000000000000000815260040161246d9061544a565b60405180910390fd5b600060066000848152602001908152602001600020805461249690614e1e565b80601f01602080910402602001604051908101604052809291908181526020018280546124c290614e1e565b801561250f5780601f106124e45761010080835404028352916020019161250f565b820191906000526020600020905b8154815290600101906020018083116124f257829003601f168201915b505050505090506000612520613cce565b90506000815103612535578192505050612578565b60008251111561256a5780826040516020016125529291906154a6565b60405160208183030381529060405292505050612578565b61257384613ce5565b925050505b919050565b6060600061258b60086138a1565b905060008167ffffffffffffffff8111156125a9576125a861492e565b5b6040519080825280602002602001820160405280156125e257816020015b6125cf61408b565b8152602001906001900390816125c75790505b509050600080600190505b83811161290d5760016002811115612608576126076145be565b5b600a600083815260200190815260200160002060050160009054906101000a900460ff16600281111561263e5761263d6145be565b5b036128fa57600a60008281526020019081526020016000206040518060e00160405290816000820154815260200160018201805461267b90614e1e565b80601f01602080910402602001604051908101604052809291908181526020018280546126a790614e1e565b80156126f45780601f106126c9576101008083540402835291602001916126f4565b820191906000526020600020905b8154815290600101906020018083116126d757829003601f168201915b5050505050815260200160028201805461270d90614e1e565b80601f016020809104026020016040519081016040528092919081815260200182805461273990614e1e565b80156127865780601f1061275b57610100808354040283529160200191612786565b820191906000526020600020905b81548152906001019060200180831161276957829003601f168201915b505050505081526020016003820160009054906101000a900473ffffffffffffffffffffffffffffffffffffffff1673ffffffffffffffffffffffffffffffffffffffff1673ffffffffffffffffffffffffffffffffffffffff1681526020016003820160149054906101000a900460ff1615151515815260200160048201805461281090614e1e565b80601f016020809104026020016040519081016040528092919081815260200182805461283c90614e1e565b80156128895780601f1061285e57610100808354040283529160200191612889565b820191906000526020600020905b81548152906001019060200180831161286c57829003601f168201915b505050505081526020016005820160009054906101000a900460ff1660028111156128b7576128b66145be565b5b60028111156128c9576128c86145be565b5b815250508383815181106128e0576128df61512c565b5b602002602001018190525081806128f69061518a565b9250505b80806129059061518a565b9150506125ed565b5060008167ffffffffffffffff81111561292a5761292961492e565b5b60405190808252806020026020018201604052801561296357816020015b61295061408b565b8152602001906001900390816129485790505b50905060005b828110156129bd578381815181106129845761298361512c565b5b602002602001015182828151811061299f5761299e61512c565b5b602002602001018190525080806129b59061518a565b915050612969565b508094505050505090565b606060006129d660086138a1565b905060008167ffffffffffffffff8111156129f4576129f361492e565b5b604051908082528060200260200182016040528015612a2d57816020015b612a1a61408b565b815260200190600190039081612a125790505b509050600080600190505b838111612dc6578573ffffffffffffffffffffffffffffffffffffffff16600a600083815260200190815260200160002060030160009054906101000a900473ffffffffffffffffffffffffffffffffffffffff1673ffffffffffffffffffffffffffffffffffffffff16148015612af7575060006002811115612abf57612abe6145be565b5b600a600083815260200190815260200160002060050160009054906101000a900460ff166002811115612af557612af46145be565b5b145b15612db357600a60008281526020019081526020016000206040518060e001604052908160008201548152602001600182018054612b3490614e1e565b80601f0160208091040260200160405190810160405280929190818152602001828054612b6090614e1e565b8015612bad5780601f10612b8257610100808354040283529160200191612bad565b820191906000526020600020905b815481529060010190602001808311612b9057829003601f168201915b50505050508152602001600282018054612bc690614e1e565b80601f0160208091040260200160405190810160405280929190818152602001828054612bf290614e1e565b8015612c3f5780601f10612c1457610100808354040283529160200191612c3f565b820191906000526020600020905b815481529060010190602001808311612c2257829003601f168201915b505050505081526020016003820160009054906101000a900473ffffffffffffffffffffffffffffffffffffffff1673ffffffffffffffffffffffffffffffffffffffff1673ffffffffffffffffffffffffffffffffffffffff1681526020016003820160149054906101000a900460ff16151515158152602001600482018054612cc990614e1e565b80601f0160208091040260200160405190810160405280929190818152602001828054612cf590614e1e565b8015612d425780601f10612d1757610100808354040283529160200191612d42565b820191906000526020600020905b815481529060010190602001808311612d2557829003601f168201915b505050505081526020016005820160009054906101000a900460ff166002811115612d7057612d6f6145be565b5b6002811115612d8257612d816145be565b5b81525050838381518110612d9957612d9861512c565b5b60200260200101819052508180612daf9061518a565b9250505b8080612dbe9061518a565b915050612a38565b5060008167ffffffffffffffff811115612de357612de261492e565b5b604051908082528060200260200182016040528015612e1c57816020015b612e0961408b565b815260200190600190039081612e015790505b50905060005b82811015612e7657838181518110612e3d57612e3c61512c565b5b6020026020010151828281518110612e5857612e5761512c565b5b60200260200101819052508080612e6e9061518a565b915050612e22565b5080945050505050919050565b60606000612e9160086138a1565b905060008167ffffffffffffffff811115612eaf57612eae61492e565b5b604051908082528060200260200182016040528015612ee857816020015b612ed561408b565b815260200190600190039081612ecd5790505b509050600080600190505b838111613280578573ffffffffffffffffffffffffffffffffffffffff16600a600083815260200190815260200160002060030160009054906101000a900473ffffffffffffffffffffffffffffffffffffffff1673ffffffffffffffffffffffffffffffffffffffff16148015612fb15750600280811115612f7957612f786145be565b5b600a600083815260200190815260200160002060050160009054906101000a900460ff166002811115612faf57612fae6145be565b5b145b1561326d57600a60008281526020019081526020016000206040518060e001604052908160008201548152602001600182018054612fee90614e1e565b80601f016020809104026020016040519081016040528092919081815260200182805461301a90614e1e565b80156130675780601f1061303c57610100808354040283529160200191613067565b820191906000526020600020905b81548152906001019060200180831161304a57829003601f168201915b5050505050815260200160028201805461308090614e1e565b80601f01602080910402602001604051908101604052809291908181526020018280546130ac90614e1e565b80156130f95780601f106130ce576101008083540402835291602001916130f9565b820191906000526020600020905b8154815290600101906020018083116130dc57829003601f168201915b505050505081526020016003820160009054906101000a900473ffffffffffffffffffffffffffffffffffffffff1673ffffffffffffffffffffffffffffffffffffffff1673ffffffffffffffffffffffffffffffffffffffff1681526020016003820160149054906101000a900460ff1615151515815260200160048201805461318390614e1e565b80601f01602080910402602001604051908101604052809291908181526020018280546131af90614e1e565b80156131fc5780601f106131d1576101008083540402835291602001916131fc565b820191906000526020600020905b8154815290600101906020018083116131df57829003601f168201915b505050505081526020016005820160009054906101000a900460ff16600281111561322a576132296145be565b5b600281111561323c5761323b6145be565b5b815250508383815181106132535761325261512c565b5b602002602001018190525081806132699061518a565b9250505b80806132789061518a565b915050612ef3565b5060008167ffffffffffffffff81111561329d5761329c61492e565b5b6040519080825280602002602001820160405280156132d657816020015b6132c361408b565b8152602001906001900390816132bb5790505b50905060005b82811015613330578381815181106132f7576132f661512c565b5b60200260200101518282815181106133125761331161512c565b5b602002602001018190525080806133289061518a565b9150506132dc565b5080945050505050919050565b6000600560008473ffffffffffffffffffffffffffffffffffffffff1673ffffffffffffffffffffffffffffffffffffffff16815260200190815260200160002060008373ffffffffffffffffffffffffffffffffffffffff1673ffffffffffffffffffffffffffffffffffffffff16815260200190815260200160002060009054906101000a900460ff16905092915050565b60007f01ffc9a7000000000000000000000000000000000000000000000000000000007bffffffffffffffffffffffffffffffffffffffffffffffffffffffff1916827bffffffffffffffffffffffffffffffffffffffffffffffffffffffff1916149050919050565b60008073ffffffffffffffffffffffffffffffffffffffff166002600084815260200190815260200160002060009054906101000a900473ffffffffffffffffffffffffffffffffffffffff1673ffffffffffffffffffffffffffffffffffffffff1614159050919050565b600033905090565b816004600083815260200190815260200160002060006101000a81548173ffffffffffffffffffffffffffffffffffffffff021916908373ffffffffffffffffffffffffffffffffffffffff160217905550808273ffffffffffffffffffffffffffffffffffffffff166135228361163a565b73ffffffffffffffffffffffffffffffffffffffff167f8c5be1e5ebec7d5bd14f71427d1e84f3dd0314c0f7b2291e5b200ac8c7c3b92560405160405180910390a45050565b60006135738261343b565b6135b2576040517f08c379a00000000000000000000000000000000000000000000000000000000081526004016135a99061553c565b60405180910390fd5b60006135bd8361163a565b90508073ffffffffffffffffffffffffffffffffffffffff168473ffffffffffffffffffffffffffffffffffffffff16148061362c57508373ffffffffffffffffffffffffffffffffffffffff166136148461093e565b73ffffffffffffffffffffffffffffffffffffffff16145b8061363d575061363c818561333d565b5b91505092915050565b8273ffffffffffffffffffffffffffffffffffffffff166136668261163a565b73ffffffffffffffffffffffffffffffffffffffff16146136bc576040517f08c379a00000000000000000000000000000000000000000000000000000000081526004016136b3906155ce565b60405180910390fd5b600073ffffffffffffffffffffffffffffffffffffffff168273ffffffffffffffffffffffffffffffffffffffff160361372b576040517f08c379a000000000000000000000000000000000000000000000000000000000815260040161372290615660565b60405180910390fd5b613736838383613d8c565b6137416000826134af565b6001600360008573ffffffffffffffffffffffffffffffffffffffff1673ffffffffffffffffffffffffffffffffffffffff16815260200190815260200160002060008282546137919190615680565b925050819055506001600360008473ffffffffffffffffffffffffffffffffffffffff1673ffffffffffffffffffffffffffffffffffffffff16815260200190815260200160002060008282546137e891906156b4565b92505081905550816002600083815260200190815260200160002060006101000a81548173ffffffffffffffffffffffffffffffffffffffff021916908373ffffffffffffffffffffffffffffffffffffffff160217905550808273ffffffffffffffffffffffffffffffffffffffff168473ffffffffffffffffffffffffffffffffffffffff167fddf252ad1be2c89b69c2b068fc378daa952ba7f163c4a11628f55a4df523b3ef60405160405180910390a4505050565b600081600001549050919050565b6001816000016000828254019250508190555050565b600073ffffffffffffffffffffffffffffffffffffffff168273ffffffffffffffffffffffffffffffffffffffff1603613934576040517f08c379a000000000000000000000000000000000000000000000000000000000815260040161392b90615756565b60405180910390fd5b61393d8161343b565b1561397d576040517f08c379a0000000000000000000000000000000000000000000000000000000008152600401613974906157c2565b60405180910390fd5b61398960008383613d8c565b6001600360008473ffffffffffffffffffffffffffffffffffffffff1673ffffffffffffffffffffffffffffffffffffffff16815260200190815260200160002060008282546139d991906156b4565b92505081905550816002600083815260200190815260200160002060006101000a81548173ffffffffffffffffffffffffffffffffffffffff021916908373ffffffffffffffffffffffffffffffffffffffff160217905550808273ffffffffffffffffffffffffffffffffffffffff16600073ffffffffffffffffffffffffffffffffffffffff167fddf252ad1be2c89b69c2b068fc378daa952ba7f163c4a11628f55a4df523b3ef60405160405180910390a45050565b613a9b8261343b565b613ada576040517f08c379a0000000000000000000000000000000000000000000000000000000008152600401613ad190615854565b60405180910390fd5b80600660008481526020019081526020016000209080519060200190613b019291906140f2565b505050565b8173ffffffffffffffffffffffffffffffffffffffff168373ffffffffffffffffffffffffffffffffffffffff1603613b74576040517f08c379a0000000000000000000000000000000000000000000000000000000008152600401613b6b906158c0565b60405180910390fd5b80600560008573ffffffffffffffffffffffffffffffffffffffff1673ffffffffffffffffffffffffffffffffffffffff16815260200190815260200160002060008473ffffffffffffffffffffffffffffffffffffffff1673ffffffffffffffffffffffffffffffffffffffff16815260200190815260200160002060006101000a81548160ff0219169083151502179055508173ffffffffffffffffffffffffffffffffffffffff168373ffffffffffffffffffffffffffffffffffffffff167f17307eab39ab6107e8899845ad3d59bd9653f200f220920489ca2b5937696c3183604051613c659190614249565b60405180910390a3505050565b613c7d848484613646565b613c8984848484613d91565b613cc8576040517f08c379a0000000000000000000000000000000000000000000000000000000008152600401613cbf90615952565b60405180910390fd5b50505050565b606060405180602001604052806000815250905090565b6060613cf08261343b565b613d2f576040517f08c379a0000000000000000000000000000000000000000000000000000000008152600401613d26906159e4565b60405180910390fd5b6000613d39613cce565b90506000815111613d595760405180602001604052806000815250613d84565b80613d6384613f18565b604051602001613d749291906154a6565b6040516020818303038152906040525b915050919050565b505050565b6000613db28473ffffffffffffffffffffffffffffffffffffffff16614078565b15613f0b578373ffffffffffffffffffffffffffffffffffffffff1663150b7a02613ddb6134a7565b8786866040518563ffffffff1660e01b8152600401613dfd9493929190615a59565b6020604051808303816000875af1925050508015613e3957506040513d601f19601f82011682018060405250810190613e369190615aba565b60015b613ebb573d8060008114613e69576040519150601f19603f3d011682016040523d82523d6000602084013e613e6e565b606091505b506000815103613eb3576040517f08c379a0000000000000000000000000000000000000000000000000000000008152600401613eaa90615952565b60405180910390fd5b805181602001fd5b63150b7a0260e01b7bffffffffffffffffffffffffffffffffffffffffffffffffffffffff1916817bffffffffffffffffffffffffffffffffffffffffffffffffffffffff191614915050613f10565b600190505b949350505050565b606060008203613f5f576040518060400160405280600181526020017f30000000000000000000000000000000000000000000000000000000000000008152509050614073565b600082905060005b60008214613f91578080613f7a9061518a565b915050600a82613f8a9190615b16565b9150613f67565b60008167ffffffffffffffff811115613fad57613fac61492e565b5b6040519080825280601f01601f191660200182016040528015613fdf5781602001600182028036833780820191505090505b5090505b6000851461406c57600182613ff89190615680565b9150600a856140079190615b47565b603061401391906156b4565b60f81b8183815181106140295761402861512c565b5b60200101907effffffffffffffffffffffffffffffffffffffffffffffffffffffffffffff1916908160001a905350600a856140659190615b16565b9450613fe3565b8093505050505b919050565b600080823b905060008111915050919050565b6040518060e00160405280600081526020016060815260200160608152602001600073ffffffffffffffffffffffffffffffffffffffff16815260200160001515815260200160608152602001600060028111156140ec576140eb6145be565b5b81525090565b8280546140fe90614e1e565b90600052602060002090601f0160209004810192826141205760008555614167565b82601f1061413957805160ff1916838001178555614167565b82800160010185558215614167579182015b8281111561416657825182559160200191906001019061414b565b5b5090506141749190614178565b5090565b5b80821115614191576000816000905550600101614179565b5090565b6000604051905090565b600080fd5b600080fd5b60007fffffffff0000000000000000000000000000000000000000000000000000000082169050919050565b6141de816141a9565b81146141e957600080fd5b50565b6000813590506141fb816141d5565b92915050565b6000602082840312156142175761421661419f565b5b6000614225848285016141ec565b91505092915050565b60008115159050919050565b6142438161422e565b82525050565b600060208201905061425e600083018461423a565b92915050565b6000819050919050565b61427781614264565b811461428257600080fd5b50565b6000813590506142948161426e565b92915050565b6142a38161422e565b81146142ae57600080fd5b50565b6000813590506142c08161429a565b92915050565b600080604083850312156142dd576142dc61419f565b5b60006142eb85828601614285565b92505060206142fc858286016142b1565b9150509250929050565b600081519050919050565b600082825260208201905092915050565b60005b83811015614340578082015181840152602081019050614325565b8381111561434f576000848401525b50505050565b6000601f19601f8301169050919050565b600061437182614306565b61437b8185614311565b935061438b818560208601614322565b61439481614355565b840191505092915050565b600060208201905081810360008301526143b98184614366565b905092915050565b6000602082840312156143d7576143d661419f565b5b60006143e584828501614285565b91505092915050565b600073ffffffffffffffffffffffffffffffffffffffff82169050919050565b6000614419826143ee565b9050919050565b6144298161440e565b82525050565b60006020820190506144446000830184614420565b92915050565b6144538161440e565b811461445e57600080fd5b50565b6000813590506144708161444a565b92915050565b6000806040838503121561448d5761448c61419f565b5b600061449b85828601614461565b92505060206144ac85828601614285565b9150509250929050565b6000806000606084860312156144cf576144ce61419f565b5b60006144dd86828701614461565b93505060206144ee86828701614461565b92505060406144ff86828701614285565b9150509250925092565b600081519050919050565b600082825260208201905092915050565b6000819050602082019050919050565b61453e81614264565b82525050565b600082825260208201905092915050565b600061456082614306565b61456a8185614544565b935061457a818560208601614322565b61458381614355565b840191505092915050565b6000614599826143ee565b9050919050565b6145a98161458e565b82525050565b6145b88161422e565b82525050565b7f4e487b7100000000000000000000000000000000000000000000000000000000600052602160045260246000fd5b600381106145fe576145fd6145be565b5b50565b600081905061460f826145ed565b919050565b600061461f82614601565b9050919050565b61462f81614614565b82525050565b600060e08301600083015161464d6000860182614535565b50602083015184820360208601526146658282614555565b9150506040830151848203604086015261467f8282614555565b915050606083015161469460608601826145a0565b5060808301516146a760808601826145af565b5060a083015184820360a08601526146bf8282614555565b91505060c08301516146d460c0860182614626565b508091505092915050565b60006146eb8383614635565b905092915050565b6000602082019050919050565b600061470b82614509565b6147158185614514565b93508360208202850161472785614525565b8060005b85811015614763578484038952815161474485826146df565b945061474f836146f3565b925060208a0199505060018101905061472b565b50829750879550505050505092915050565b6000602082019050818103600083015261478f8184614700565b905092915050565b600080604083850312156147ae576147ad61419f565b5b60006147bc85828601614285565b92505060206147cd85828601614461565b9150509250929050565b6000602082840312156147ed576147ec61419f565b5b60006147fb84828501614461565b91505092915050565b61480d81614264565b82525050565b60006020820190506148286000830184614804565b92915050565b600060e0830160008301516148466000860182614535565b506020830151848203602086015261485e8282614555565b915050604083015184820360408601526148788282614555565b915050606083015161488d60608601826145a0565b5060808301516148a060808601826145af565b5060a083015184820360a08601526148b88282614555565b91505060c08301516148cd60c0860182614626565b508091505092915050565b600060208201905081810360008301526148f2818461482e565b905092915050565b6149038161458e565b82525050565b600060208201905061491e60008301846148fa565b92915050565b600080fd5b600080fd5b7f4e487b7100000000000000000000000000000000000000000000000000000000600052604160045260246000fd5b61496682614355565b810181811067ffffffffffffffff821117156149855761498461492e565b5b80604052505050565b6000614998614195565b90506149a4828261495d565b919050565b600067ffffffffffffffff8211156149c4576149c361492e565b5b6149cd82614355565b9050602081019050919050565b82818337600083830152505050565b60006149fc6149f7846149a9565b61498e565b905082815260208101848484011115614a1857614a17614929565b5b614a238482856149da565b509392505050565b600082601f830112614a4057614a3f614924565b5b8135614a508482602086016149e9565b91505092915050565b600080600060608486031215614a7257614a7161419f565b5b600084013567ffffffffffffffff811115614a9057614a8f6141a4565b5b614a9c86828701614a2b565b935050602084013567ffffffffffffffff811115614abd57614abc6141a4565b5b614ac986828701614a2b565b925050604084013567ffffffffffffffff811115614aea57614ae96141a4565b5b614af686828701614a2b565b9150509250925092565b60038110614b0d57600080fd5b50565b600081359050614b1f81614b00565b92915050565b60008060408385031215614b3c57614b3b61419f565b5b6000614b4a85828601614285565b9250506020614b5b85828601614b10565b9150509250929050565b60008060408385031215614b7c57614b7b61419f565b5b6000614b8a85828601614461565b9250506020614b9b858286016142b1565b9150509250929050565b600067ffffffffffffffff821115614bc057614bbf61492e565b5b614bc982614355565b9050602081019050919050565b6000614be9614be484614ba5565b61498e565b905082815260208101848484011115614c0557614c04614929565b5b614c108482856149da565b509392505050565b600082601f830112614c2d57614c2c614924565b5b8135614c3d848260208601614bd6565b91505092915050565b60008060008060808587031215614c6057614c5f61419f565b5b6000614c6e87828801614461565b9450506020614c7f87828801614461565b9350506040614c9087828801614285565b925050606085013567ffffffffffffffff811115614cb157614cb06141a4565b5b614cbd87828801614c18565b91505092959194509250565b60008060408385031215614ce057614cdf61419f565b5b6000614cee85828601614461565b9250506020614cff85828601614461565b9150509250929050565b7f43616c6c6572206973206e6f7420746865206f776e6572206f6620746869732060008201527f746f6b656e000000000000000000000000000000000000000000000000000000602082015250565b6000614d65602583614311565b9150614d7082614d09565b604082019050919050565b60006020820190508181036000830152614d9481614d58565b9050919050565b614da481614614565b82525050565b6000608082019050614dbf6000830187614804565b614dcc60208301866148fa565b614dd9604083018561423a565b614de66060830184614d9b565b95945050505050565b7f4e487b7100000000000000000000000000000000000000000000000000000000600052602260045260246000fd5b60006002820490506001821680614e3657607f821691505b602082108103614e4957614e48614def565b5b50919050565b7f4552433732313a20617070726f76656420717565727920666f72206e6f6e657860008201527f697374656e7420746f6b656e0000000000000000000000000000000000000000602082015250565b6000614eab602c83614311565b9150614eb682614e4f565b604082019050919050565b60006020820190508181036000830152614eda81614e9e565b9050919050565b7f4552433732313a20617070726f76616c20746f2063757272656e74206f776e6560008201527f7200000000000000000000000000000000000000000000000000000000000000602082015250565b6000614f3d602183614311565b9150614f4882614ee1565b604082019050919050565b60006020820190508181036000830152614f6c81614f30565b9050919050565b7f4552433732313a20617070726f76652063616c6c6572206973206e6f74206f7760008201527f6e6572206e6f7220617070726f76656420666f7220616c6c0000000000000000602082015250565b6000614fcf603883614311565b9150614fda82614f73565b604082019050919050565b60006020820190508181036000830152614ffe81614fc2565b9050919050565b7f596f7520617265206e6f7420746865206f776e65720000000000000000000000600082015250565b600061503b601583614311565b915061504682615005565b602082019050919050565b6000602082019050818103600083015261506a8161502e565b9050919050565b60006040820190506150866000830185614420565b6150936020830184614804565b9392505050565b7f4552433732313a207472616e736665722063616c6c6572206973206e6f74206f60008201527f776e6572206e6f7220617070726f766564000000000000000000000000000000602082015250565b60006150f6603183614311565b91506151018261509a565b604082019050919050565b60006020820190508181036000830152615125816150e9565b9050919050565b7f4e487b7100000000000000000000000000000000000000000000000000000000600052603260045260246000fd5b7f4e487b7100000000000000000000000000000000000000000000000000000000600052601160045260246000fd5b600061519582614264565b91507fffffffffffffffffffffffffffffffffffffffffffffffffffffffffffffffff82036151c7576151c661515b565b5b600182019050919050565b7f4552433732313a206f776e657220717565727920666f72206e6f6e657869737460008201527f656e7420746f6b656e0000000000000000000000000000000000000000000000602082015250565b600061522e602983614311565b9150615239826151d2565b604082019050919050565b6000602082019050818103600083015261525d81615221565b9050919050565b7f4552433732313a2062616c616e636520717565727920666f7220746865207a6560008201527f726f206164647265737300000000000000000000000000000000000000000000602082015250565b60006152c0602a83614311565b91506152cb82615264565b604082019050919050565b600060208201905081810360008301526152ef816152b3565b9050919050565b7f4e46542073686f772069732073657420746f2066616c73650000000000000000600082015250565b600061532c601883614311565b9150615337826152f6565b602082019050919050565b6000602082019050818103600083015261535b8161531f565b9050919050565b600060c0820190506153776000830189614804565b81810360208301526153898188614366565b9050818103604083015261539d8187614366565b90506153ac60608301866148fa565b6153b9608083018561423a565b81810360a08301526153cb8184614366565b9050979650505050505050565b7f45524337323155524953746f726167653a2055524920717565727920666f722060008201527f6e6f6e6578697374656e7420746f6b656e000000000000000000000000000000602082015250565b6000615434603183614311565b915061543f826153d8565b604082019050919050565b6000602082019050818103600083015261546381615427565b9050919050565b600081905092915050565b600061548082614306565b61548a818561546a565b935061549a818560208601614322565b80840191505092915050565b60006154b28285615475565b91506154be8284615475565b91508190509392505050565b7f4552433732313a206f70657261746f7220717565727920666f72206e6f6e657860008201527f697374656e7420746f6b656e0000000000000000000000000000000000000000602082015250565b6000615526602c83614311565b9150615531826154ca565b604082019050919050565b6000602082019050818103600083015261555581615519565b9050919050565b7f4552433732313a207472616e73666572206f6620746f6b656e2074686174206960008201527f73206e6f74206f776e0000000000000000000000000000000000000000000000602082015250565b60006155b8602983614311565b91506155c38261555c565b604082019050919050565b600060208201905081810360008301526155e7816155ab565b9050919050565b7f4552433732313a207472616e7366657220746f20746865207a65726f2061646460008201527f7265737300000000000000000000000000000000000000000000000000000000602082015250565b600061564a602483614311565b9150615655826155ee565b604082019050919050565b600060208201905081810360008301526156798161563d565b9050919050565b600061568b82614264565b915061569683614264565b9250828210156156a9576156a861515b565b5b828203905092915050565b60006156bf82614264565b91506156ca83614264565b9250827fffffffffffffffffffffffffffffffffffffffffffffffffffffffffffffffff038211156156ff576156fe61515b565b5b828201905092915050565b7f4552433732313a206d696e7420746f20746865207a65726f2061646472657373600082015250565b6000615740602083614311565b915061574b8261570a565b602082019050919050565b6000602082019050818103600083015261576f81615733565b9050919050565b7f4552433732313a20746f6b656e20616c7265616479206d696e74656400000000600082015250565b60006157ac601c83614311565b91506157b782615776565b602082019050919050565b600060208201905081810360008301526157db8161579f565b9050919050565b7f45524337323155524953746f726167653a2055524920736574206f66206e6f6e60008201527f6578697374656e7420746f6b656e000000000000000000000000000000000000602082015250565b600061583e602e83614311565b9150615849826157e2565b604082019050919050565b6000602082019050818103600083015261586d81615831565b9050919050565b7f4552433732313a20617070726f766520746f2063616c6c657200000000000000600082015250565b60006158aa601983614311565b91506158b582615874565b602082019050919050565b600060208201905081810360008301526158d98161589d565b9050919050565b7f4552433732313a207472616e7366657220746f206e6f6e20455243373231526560008201527f63656976657220696d706c656d656e7465720000000000000000000000000000602082015250565b600061593c603283614311565b9150615947826158e0565b604082019050919050565b6000602082019050818103600083015261596b8161592f565b9050919050565b7f4552433732314d657461646174613a2055524920717565727920666f72206e6f60008201527f6e6578697374656e7420746f6b656e0000000000000000000000000000000000602082015250565b60006159ce602f83614311565b91506159d982615972565b604082019050919050565b600060208201905081810360008301526159fd816159c1565b9050919050565b600081519050919050565b600082825260208201905092915050565b6000615a2b82615a04565b615a358185615a0f565b9350615a45818560208601614322565b615a4e81614355565b840191505092915050565b6000608082019050615a6e6000830187614420565b615a7b6020830186614420565b615a886040830185614804565b8181036060830152615a9a8184615a20565b905095945050505050565b600081519050615ab4816141d5565b92915050565b600060208284031215615ad057615acf61419f565b5b6000615ade84828501615aa5565b91505092915050565b7f4e487b7100000000000000000000000000000000000000000000000000000000600052601260045260246000fd5b6000615b2182614264565b9150615b2c83614264565b925082615b3c57615b3b615ae7565b5b828204905092915050565b6000615b5282614264565b9150615b5d83614264565b925082615b6d57615b6c615ae7565b5b82820690509291505056fea2646970667358221220dc8d5780e7a93be86e1444eb98c283ccb3dd88e23a293fbe900d303a9e059f3364736f6c634300080d0033",
  "immutableReferences": {},
  "source": "// SPDX-License-Identifier: Unlicense\npragma solidity ^0.8.0;\n\nimport \"@openzeppelin/contracts/utils/Counters.sol\";\nimport \"@openzeppelin/contracts/token/ERC721/extensions/ERC721URIStorage.sol\";\nimport \"@openzeppelin/contracts/security/ReentrancyGuard.sol\";\n\ncontract NFT is ERC721URIStorage, ReentrancyGuard {\n    using Counters for Counters.Counter;\n\n    Counters.Counter private _tokenIds;\n    address payable public owner;\n    enum NFTStatus { None, Sell, Auction }\n    struct myNFT {\n        uint256 tokenId;\n        string title;\n        string Description;\n        address payable owner;\n        bool show;\n        string image;\n       NFTStatus status ;\n    }\n\n    mapping(uint256 => myNFT) private idNFTs;\n\n    event createListMyNFT(uint256 tokenId, string title, string Description, address payable owner, bool show, string image);\n    event updateListMyNFT(uint256 tokenId, address payable owner, bool show ,NFTStatus status);\n    event MarketplaceApproved(address marketplaceAddress, uint256 tokenId);\n\n    constructor() ERC721(\"NFT Marketplace Token\", \"NFTM\") {\n        owner = payable(msg.sender);\n    }\n\n\n\n    // Helper function to convert enum to string for event\n    function _getStatusString(NFTStatus status) internal pure returns (string memory) {\n        if (status == NFTStatus.None) {\n            return \"None\";\n        } else if (status == NFTStatus.Sell) {\n            return \"Sell\";\n        } else {\n            return \"Auction\";\n        }\n    }\n\n\n    // Function to update the status of an NFT\n    function updateStatusMyNFT(uint256 tokenId, NFTStatus _status) public onlyOwnerOfToken(tokenId) {\n        myNFT storage item = idNFTs[tokenId];\n        if (item.status != _status) {\n            item.status = _status;\n            emit updateListMyNFT(tokenId, item.owner, item.show, _status); // Emit an event for the status update\n        }\n    }\n\n    // Function to update the owner of an NFT\n    function updateOwnerMyNFT(uint256 tokenId, address _owner) public onlyOwnerOfToken(tokenId) {\n        myNFT storage item = idNFTs[tokenId];\n        if (item.owner != payable (_owner)) {\n            item.owner = payable (_owner);\n            emit updateListMyNFT(tokenId, payable (_owner), item.show, item.status);\n        }\n    }\n\n  \n\n    function approveMarketplace(address marketplaceAddress, uint256 tokenId) public {\n        require(ownerOf(tokenId) == msg.sender, \"You are not the owner\");\n        \n        approve(marketplaceAddress, tokenId);\n        emit MarketplaceApproved(marketplaceAddress, tokenId);\n    }\n\n    // Create a new NFT\n    function createToken(string memory tokenUrl, string memory title, string memory Description) public payable returns (uint256) {\n        _tokenIds.increment();\n        uint256 newTokenId = _tokenIds.current();\n        _mint(msg.sender, newTokenId);\n        _setTokenURI(newTokenId, tokenUrl);\n\n        idNFTs[newTokenId] = myNFT(newTokenId, title, Description, payable(msg.sender), true, tokenUrl,NFTStatus.None);\n        emit createListMyNFT(newTokenId, title, Description, payable(msg.sender), true, tokenUrl);\n\n        return newTokenId;\n    }\n\n    // Show or hide NFT\n    function ShowOnOrOffNFT(uint256 tokenId, bool show) public onlyOwnerOfToken(tokenId) {\n        myNFT storage item = idNFTs[tokenId];\n        if (item.show != show) {\n            item.show = show;\n            emit updateListMyNFT(tokenId, item.owner, show ,item.status);\n        }\n    }\n\n    // Get all my NFTs\n    function getMyNFTs() public view returns (myNFT[] memory) {\n        uint256 totalItems = _tokenIds.current(); // Total number of NFTs\n\n        // Create an array to hold the owner's NFTs\n        myNFT[] memory ownerItems = new myNFT[](totalItems); // Temporary array\n        uint256 currentIndex = 0;\n\n        // Single pass: Populate the array directly\n        for (uint256 i = 1; i <= totalItems; i++) { // Start from 1 since IDs are assumed to start from 1\n            if (idNFTs[i].status==NFTStatus.None) {\n                ownerItems[currentIndex] = idNFTs[i]; // Store the NFT in the array\n                currentIndex++; // Move to the next index in the array\n            }\n        }\n\n        // Create a final array with the exact size of owned items\n        myNFT[] memory finalOwnerItems = new myNFT[](currentIndex);\n        for (uint256 j = 0; j < currentIndex; j++) {\n            finalOwnerItems[j] = ownerItems[j]; // Copy to final array\n        }\n\n        return finalOwnerItems; // Return the array of NFTs owned by the owner\n    }\n\n    // Get NFTs owned by a specific owner\n     function getOwnerMyNFTs(address nftOwner) public view returns (myNFT[] memory) {\n        uint256 totalItems = _tokenIds.current(); // Total number of NFTs\n\n        // Create an array to hold the owner's NFTs\n        myNFT[] memory ownerItems = new myNFT[](totalItems); // Temporary array\n        uint256 currentIndex = 0;\n\n        // Single pass: Populate the array directly\n        for (uint256 i = 1; i <= totalItems; i++) { // Start from 1 since IDs are assumed to start from 1\n            if (idNFTs[i].owner == nftOwner && idNFTs[i].status==NFTStatus.None) {\n                ownerItems[currentIndex] = idNFTs[i]; // Store the NFT in the array\n                currentIndex++; // Move to the next index in the array\n            }\n        }\n\n        // Create a final array with the exact size of owned items\n        myNFT[] memory finalOwnerItems = new myNFT[](currentIndex);\n        for (uint256 j = 0; j < currentIndex; j++) {\n            finalOwnerItems[j] = ownerItems[j]; // Copy to final array\n        }\n\n        return finalOwnerItems; // Return the array of NFTs owned by the owner\n    }\n\n    // Get NFTs owned by a specific owner sell\n    function getOwnerNFTsSell(address nftOwner) public view returns (myNFT[] memory) {\n        uint256 totalItems = _tokenIds.current(); // Total number of NFTs\n\n        // Create an array to hold the owner's NFTs\n        myNFT[] memory ownerItems = new myNFT[](totalItems); // Temporary array\n        uint256 currentIndex = 0;\n\n        // Single pass: Populate the array directly\n        for (uint256 i = 1; i <= totalItems; i++) { // Start from 1 since IDs are assumed to start from 1\n            if (idNFTs[i].owner == nftOwner && idNFTs[i].status==NFTStatus.Sell) {\n                ownerItems[currentIndex] = idNFTs[i]; // Store the NFT in the array\n                currentIndex++; // Move to the next index in the array\n            }\n        }\n\n        // Create a final array with the exact size of owned items\n        myNFT[] memory finalOwnerItems = new myNFT[](currentIndex);\n        for (uint256 j = 0; j < currentIndex; j++) {\n            finalOwnerItems[j] = ownerItems[j]; // Copy to final array\n        }\n\n        return finalOwnerItems; // Return the array of NFTs owned by the owner\n    }\n\n\n    // Get NFTs owned by a specific owner Auction\n    function getOwnerNFTsAuction(address nftOwner) public view returns (myNFT[] memory) {\n        uint256 totalItems = _tokenIds.current(); // Total number of NFTs\n\n        // Create an array to hold the owner's NFTs\n        myNFT[] memory ownerItems = new myNFT[](totalItems); // Temporary array\n        uint256 currentIndex = 0;\n\n        // Single pass: Populate the array directly\n        for (uint256 i = 1; i <= totalItems; i++) { // Start from 1 since IDs are assumed to start from 1\n            if (idNFTs[i].owner == nftOwner && idNFTs[i].status==NFTStatus.Auction) {\n                ownerItems[currentIndex] = idNFTs[i]; // Store the NFT in the array\n                currentIndex++; // Move to the next index in the array\n            }\n        }\n\n        // Create a final array with the exact size of owned items\n        myNFT[] memory finalOwnerItems = new myNFT[](currentIndex);\n        for (uint256 j = 0; j < currentIndex; j++) {\n            finalOwnerItems[j] = ownerItems[j]; // Copy to final array\n        }\n\n        return finalOwnerItems; // Return the array of NFTs owned by the owner\n    }\n\n\n    // Get NFTs  SEll\n     function getNFTsSell() public view returns (myNFT[] memory) {\n        uint256 totalItems = _tokenIds.current(); // Total number of NFTs\n\n        // Create an array to hold the owner's NFTs\n        myNFT[] memory ownerItems = new myNFT[](totalItems); // Temporary array\n        uint256 currentIndex = 0;\n\n        // Single pass: Populate the array directly\n        for (uint256 i = 1; i <= totalItems; i++) { // Start from 1 since IDs are assumed to start from 1\n            if (idNFTs[i].status==NFTStatus.Sell) {\n                ownerItems[currentIndex] = idNFTs[i]; // Store the NFT in the array\n                currentIndex++; // Move to the next index in the array\n            }\n        }\n\n        // Create a final array with the exact size of owned items\n        myNFT[] memory finalOwnerItems = new myNFT[](currentIndex);\n        for (uint256 j = 0; j < currentIndex; j++) {\n            finalOwnerItems[j] = ownerItems[j]; // Copy to final array\n        }\n\n        return finalOwnerItems; // Return the array of NFTs owned by the owner\n    }\n\n\n//   Get NFTs  Auction\n    function getNFTsAuction() public view returns (myNFT[] memory) {\n        uint256 totalItems = _tokenIds.current(); // Total number of NFTs\n\n        // Create an array to hold the owner's NFTs\n        myNFT[] memory ownerItems = new myNFT[](totalItems); // Temporary array\n        uint256 currentIndex = 0;\n\n        // Single pass: Populate the array directly\n        for (uint256 i = 1; i <= totalItems; i++) { // Start from 1 since IDs are assumed to start from 1\n            if (idNFTs[i].status==NFTStatus.Auction) {\n                ownerItems[currentIndex] = idNFTs[i]; // Store the NFT in the array\n                currentIndex++; // Move to the next index in the array\n            }\n        }\n\n        // Create a final array with the exact size of owned items\n        myNFT[] memory finalOwnerItems = new myNFT[](currentIndex);\n        for (uint256 j = 0; j < currentIndex; j++) {\n            finalOwnerItems[j] = ownerItems[j]; // Copy to final array\n        }\n\n        return finalOwnerItems; // Return the array of NFTs owned by the owner\n    }\n\n\n    // Get NFT details\n    function getNFTDetails(uint256 tokenId) public view returns (myNFT memory) {\n        myNFT storage data = idNFTs[tokenId];\n        if (!data.show) {\n            require(data.owner == payable(msg.sender), \"NFT show is set to false\");\n        }\n        return data;\n    }\n\n    modifier onlyOwnerOfToken(uint256 tokenId) {\n        require(ownerOf(tokenId) == msg.sender, \"Caller is not the owner of this token\");\n        _;\n    }\n\n    modifier onlyContractOwner() {\n        require(msg.sender == owner, \"Caller is not the contract owner\");\n        _;\n    }\n}\n",
  "sourcePath": "/home/hiep-ubuntu/Desktop/remix/MetaCoin/contracts/NFT.sol",
  "compiler": {
    "name": "solc",
    "version": "0.8.13+commit.abaa5c0e.Emscripten.clang"
  },
  "schemaVersion": "3.4.16",
  "updatedAt": "2024-10-13T11:53:35.049Z",
  "networkType": "ethereum",
  "devdoc": {
    "kind": "dev",
    "methods": {
      "approve(address,uint256)": {
        "details": "See {IERC721-approve}."
      },
      "balanceOf(address)": {
        "details": "See {IERC721-balanceOf}."
      },
      "getApproved(uint256)": {
        "details": "See {IERC721-getApproved}."
      },
      "isApprovedForAll(address,address)": {
        "details": "See {IERC721-isApprovedForAll}."
      },
      "name()": {
        "details": "See {IERC721Metadata-name}."
      },
      "ownerOf(uint256)": {
        "details": "See {IERC721-ownerOf}."
      },
      "safeTransferFrom(address,address,uint256)": {
        "details": "See {IERC721-safeTransferFrom}."
      },
      "safeTransferFrom(address,address,uint256,bytes)": {
        "details": "See {IERC721-safeTransferFrom}."
      },
      "setApprovalForAll(address,bool)": {
        "details": "See {IERC721-setApprovalForAll}."
      },
      "supportsInterface(bytes4)": {
        "details": "See {IERC165-supportsInterface}."
      },
      "symbol()": {
        "details": "See {IERC721Metadata-symbol}."
      },
      "tokenURI(uint256)": {
        "details": "See {IERC721Metadata-tokenURI}."
      },
      "transferFrom(address,address,uint256)": {
        "details": "See {IERC721-transferFrom}."
      }
    },
    "version": 1
  },
  "userdoc": {
    "kind": "user",
    "methods": {},
    "version": 1
  }
}